{
  "contractName": "BountyBuster",
  "abi": [
    {
      "constant": true,
      "inputs": [
        {
          "name": "",
          "type": "address"
        }
      ],
      "name": "balances",
      "outputs": [
        {
          "name": "",
          "type": "uint256"
        }
      ],
      "payable": false,
      "stateMutability": "view",
      "type": "function"
    },
    {
      "constant": true,
      "inputs": [
        {
          "name": "",
          "type": "bytes32"
        }
      ],
      "name": "requests",
      "outputs": [
        {
          "name": "requester",
          "type": "address"
        },
        {
          "name": "taskHash",
          "type": "bytes32"
        },
        {
          "name": "message",
          "type": "bytes"
        },
        {
          "name": "status",
          "type": "uint8"
        },
        {
          "name": "created_at",
          "type": "uint256"
        }
      ],
      "payable": false,
      "stateMutability": "view",
      "type": "function"
    },
    {
      "constant": true,
      "inputs": [
        {
          "name": "",
          "type": "bytes32"
        }
      ],
      "name": "tasks",
      "outputs": [
        {
          "name": "title",
          "type": "bytes"
        },
        {
          "name": "poster",
          "type": "address"
        },
        {
          "name": "hunter",
          "type": "address"
        },
        {
          "name": "reward",
          "type": "uint256"
        },
        {
          "name": "description",
          "type": "bytes"
        },
        {
          "name": "status",
          "type": "uint8"
        },
        {
          "name": "created_at",
          "type": "uint256"
        }
      ],
      "payable": false,
      "stateMutability": "view",
      "type": "function"
    },
    {
      "anonymous": false,
      "inputs": [
        {
          "indexed": true,
          "name": "taskHash",
          "type": "bytes32"
        },
        {
          "indexed": true,
          "name": "poster",
          "type": "address"
        }
      ],
      "name": "TaskAdded",
      "type": "event"
    },
    {
      "anonymous": false,
      "inputs": [
        {
          "indexed": false,
          "name": "requestHash",
          "type": "bytes32"
        },
        {
          "indexed": true,
          "name": "taskHash",
          "type": "bytes32"
        },
        {
          "indexed": true,
          "name": "requester",
          "type": "address"
        }
      ],
      "name": "TaskRequested",
      "type": "event"
    },
    {
      "constant": false,
      "inputs": [
        {
          "name": "_title",
          "type": "bytes"
        },
        {
          "name": "_description",
          "type": "bytes"
        }
      ],
      "name": "addTask",
      "outputs": [],
      "payable": true,
      "stateMutability": "payable",
      "type": "function"
    },
    {
      "constant": false,
      "inputs": [
        {
          "name": "_taskHash",
          "type": "bytes32"
        },
        {
          "name": "_message",
          "type": "bytes"
        }
      ],
      "name": "submitRequest",
      "outputs": [],
      "payable": false,
      "stateMutability": "nonpayable",
      "type": "function"
    },
    {
      "constant": false,
      "inputs": [
        {
          "name": "_requestHash",
          "type": "bytes32"
        }
      ],
      "name": "acceptRequest",
      "outputs": [],
      "payable": false,
      "stateMutability": "nonpayable",
      "type": "function"
    },
    {
      "constant": false,
      "inputs": [
        {
          "name": "_requestHash",
          "type": "bytes32"
        }
      ],
      "name": "rejectRequest",
      "outputs": [],
      "payable": false,
      "stateMutability": "nonpayable",
      "type": "function"
    }
  ],
  "bytecode": "0x608060405234801561001057600080fd5b50611ff0806100206000396000f300608060405260043610610083576000357c0100000000000000000000000000000000000000000000000000000000900463ffffffff16806327e235e3146100885780634e552bc5146100df57806395587d03146101565780639d86698514610187578063a721cd301461028f578063c2079724146102c0578063e579f50014610362575b600080fd5b34801561009457600080fd5b506100c9600480360381019080803573ffffffffffffffffffffffffffffffffffffffff169060200190929190505050610501565b6040518082815260200191505060405180910390f35b3480156100eb57600080fd5b506101546004803603810190808035600019169060200190929190803590602001908201803590602001908080601f0160208091040260200160405190810160405280939291908181526020018383808284378201915050505050509192919290505050610519565b005b34801561016257600080fd5b506101856004803603810190808035600019169060200190929190505050610a6d565b005b34801561019357600080fd5b506101b66004803603810190808035600019169060200190929190505050611084565b604051808673ffffffffffffffffffffffffffffffffffffffff1673ffffffffffffffffffffffffffffffffffffffff16815260200185600019166000191681526020018060200184600281111561020a57fe5b60ff168152602001838152602001828103825285818151815260200191508051906020019080838360005b83811015610250578082015181840152602081019050610235565b50505050905090810190601f16801561027d5780820380516001836020036101000a031916815260200191505b50965050505050505060405180910390f35b34801561029b57600080fd5b506102be600480360381019080803560001916906020019092919050505061117f565b005b610360600480360381019080803590602001908201803590602001908080601f0160208091040260200160405190810160405280939291908181526020018383808284378201915050505050509192919290803590602001908201803590602001908080601f016020809104026020016040519081016040528093929190818152602001838380828437820191505050505050919291929050505061192e565b005b34801561036e57600080fd5b506103916004803603810190808035600019169060200190929190505050611c97565b60405180806020018873ffffffffffffffffffffffffffffffffffffffff1673ffffffffffffffffffffffffffffffffffffffff1681526020018773ffffffffffffffffffffffffffffffffffffffff1673ffffffffffffffffffffffffffffffffffffffff1681526020018681526020018060200185600181111561041357fe5b60ff16815260200184815260200183810383528a818151815260200191508051906020019080838360005b8381101561045957808201518184015260208101905061043e565b50505050905090810190601f1680156104865780820380516001836020036101000a031916815260200191505b50838103825286818151815260200191508051906020019080838360005b838110156104bf5780820151818401526020810190506104a4565b50505050905090810190601f1680156104ec5780820380516001836020036101000a031916815260200191505b50995050505050505050505060405180910390f35b60026020528060005260406000206000915090505481565b610521611e56565b600061052b611ecb565b6000806000876000191660001916815260200190815260200160002060e06040519081016040529081600082018054600181600116156101000203166002900480601f0160208091040260200160405190810160405280929190818152602001828054600181600116156101000203166002900480156105ec5780601f106105c1576101008083540402835291602001916105ec565b820191906000526020600020905b8154815290600101906020018083116105cf57829003601f168201915b505050505081526020016001820160009054906101000a900473ffffffffffffffffffffffffffffffffffffffff1673ffffffffffffffffffffffffffffffffffffffff1673ffffffffffffffffffffffffffffffffffffffff1681526020016002820160009054906101000a900473ffffffffffffffffffffffffffffffffffffffff1673ffffffffffffffffffffffffffffffffffffffff1673ffffffffffffffffffffffffffffffffffffffff16815260200160038201548152602001600482018054600181600116156101000203166002900480601f0160208091040260200160405190810160405280929190818152602001828054600181600116156101000203166002900480156107445780601f1061071957610100808354040283529160200191610744565b820191906000526020600020905b81548152906001019060200180831161072757829003601f168201915b505050505081526020016005820160009054906101000a900460ff16600181111561076b57fe5b600181111561077657fe5b815260200160068201548152505093503373ffffffffffffffffffffffffffffffffffffffff16846020015173ffffffffffffffffffffffffffffffffffffffff16141515156107c557600080fd5b42925060a0604051908101604052803373ffffffffffffffffffffffffffffffffffffffff168152602001876000191681526020018681526020016000600281111561080d57fe5b815260200184815250915033868685604051602001808573ffffffffffffffffffffffffffffffffffffffff1673ffffffffffffffffffffffffffffffffffffffff166c01000000000000000000000000028152601401846000191660001916815260200183805190602001908083835b6020831015156108a3578051825260208201915060208101905060208303925061087e565b6001836020036101000a0380198251168184511680821785525050505050509050018281526020019450505050506040516020818303038152906040526040518082805190602001908083835b60208310151561091557805182526020820191506020810190506020830392506108f0565b6001836020036101000a038019825116818451168082178552505050505050905001915050604051809103902090508160016000836000191660001916815260200190815260200160002060008201518160000160006101000a81548173ffffffffffffffffffffffffffffffffffffffff021916908373ffffffffffffffffffffffffffffffffffffffff1602179055506020820151816001019060001916905560408201518160020190805190602001906109d3929190611f1f565b5060608201518160030160006101000a81548160ff021916908360028111156109f857fe5b0217905550608082015181600401559050503373ffffffffffffffffffffffffffffffffffffffff1686600019167f96bd54e22b73f861fdbf2b33846ab39a2ddafc0a4bb6ee9a104cb2451c8138b48360405180826000191660001916815260200191505060405180910390a3505050505050565b600081610a78611ecb565b60016000836000191660001916815260200190815260200160002060a060405190810160405290816000820160009054906101000a900473ffffffffffffffffffffffffffffffffffffffff1673ffffffffffffffffffffffffffffffffffffffff1673ffffffffffffffffffffffffffffffffffffffff168152602001600182015460001916600019168152602001600282018054600181600116156101000203166002900480601f016020809104026020016040519081016040528092919081815260200182805460018160011615610100020316600290048015610ba05780601f10610b7557610100808354040283529160200191610ba0565b820191906000526020600020905b815481529060010190602001808311610b8357829003601f168201915b505050505081526020016003820160009054906101000a900460ff166002811115610bc757fe5b6002811115610bd257fe5b81526020016004820154815250509050600073ffffffffffffffffffffffffffffffffffffffff16816000015173ffffffffffffffffffffffffffffffffffffffff1614151515610c2257600080fd5b83610c2b611ecb565b610c33611e56565b60016000846000191660001916815260200190815260200160002060a060405190810160405290816000820160009054906101000a900473ffffffffffffffffffffffffffffffffffffffff1673ffffffffffffffffffffffffffffffffffffffff1673ffffffffffffffffffffffffffffffffffffffff168152602001600182015460001916600019168152602001600282018054600181600116156101000203166002900480601f016020809104026020016040519081016040528092919081815260200182805460018160011615610100020316600290048015610d5b5780601f10610d3057610100808354040283529160200191610d5b565b820191906000526020600020905b815481529060010190602001808311610d3e57829003601f168201915b505050505081526020016003820160009054906101000a900460ff166002811115610d8257fe5b6002811115610d8d57fe5b8152602001600482015481525050915060008083602001516000191660001916815260200190815260200160002060e06040519081016040529081600082018054600181600116156101000203166002900480601f016020809104026020016040519081016040528092919081815260200182805460018160011615610100020316600290048015610e605780601f10610e3557610100808354040283529160200191610e60565b820191906000526020600020905b815481529060010190602001808311610e4357829003601f168201915b505050505081526020016001820160009054906101000a900473ffffffffffffffffffffffffffffffffffffffff1673ffffffffffffffffffffffffffffffffffffffff1673ffffffffffffffffffffffffffffffffffffffff1681526020016002820160009054906101000a900473ffffffffffffffffffffffffffffffffffffffff1673ffffffffffffffffffffffffffffffffffffffff1673ffffffffffffffffffffffffffffffffffffffff16815260200160038201548152602001600482018054600181600116156101000203166002900480601f016020809104026020016040519081016040528092919081815260200182805460018160011615610100020316600290048015610fb85780601f10610f8d57610100808354040283529160200191610fb8565b820191906000526020600020905b815481529060010190602001808311610f9b57829003601f168201915b505050505081526020016005820160009054906101000a900460ff166001811115610fdf57fe5b6001811115610fea57fe5b815260200160068201548152505090503373ffffffffffffffffffffffffffffffffffffffff16816020015173ffffffffffffffffffffffffffffffffffffffff1614151561103857600080fd5b600160008860001916600019168152602001908152602001600020955060028660030160006101000a81548160ff0219169083600281111561107657fe5b021790555050505050505050565b60016020528060005260406000206000915090508060000160009054906101000a900473ffffffffffffffffffffffffffffffffffffffff1690806001015490806002018054600181600116156101000203166002900480601f01602080910402602001604051908101604052809291908181526020018280546001816001161561010002031660029004801561115c5780601f106111315761010080835404028352916020019161115c565b820191906000526020600020905b81548152906001019060200180831161113f57829003601f168201915b5050505050908060030160009054906101000a900460ff16908060040154905085565b6000808261118b611ecb565b60016000836000191660001916815260200190815260200160002060a060405190810160405290816000820160009054906101000a900473ffffffffffffffffffffffffffffffffffffffff1673ffffffffffffffffffffffffffffffffffffffff1673ffffffffffffffffffffffffffffffffffffffff168152602001600182015460001916600019168152602001600282018054600181600116156101000203166002900480601f0160208091040260200160405190810160405280929190818152602001828054600181600116156101000203166002900480156112b35780601f10611288576101008083540402835291602001916112b3565b820191906000526020600020905b81548152906001019060200180831161129657829003601f168201915b505050505081526020016003820160009054906101000a900460ff1660028111156112da57fe5b60028111156112e557fe5b81526020016004820154815250509050600073ffffffffffffffffffffffffffffffffffffffff16816000015173ffffffffffffffffffffffffffffffffffffffff161415151561133557600080fd5b8461133e611ecb565b611346611e56565b60016000846000191660001916815260200190815260200160002060a060405190810160405290816000820160009054906101000a900473ffffffffffffffffffffffffffffffffffffffff1673ffffffffffffffffffffffffffffffffffffffff1673ffffffffffffffffffffffffffffffffffffffff168152602001600182015460001916600019168152602001600282018054600181600116156101000203166002900480601f01602080910402602001604051908101604052809291908181526020018280546001816001161561010002031660029004801561146e5780601f106114435761010080835404028352916020019161146e565b820191906000526020600020905b81548152906001019060200180831161145157829003601f168201915b505050505081526020016003820160009054906101000a900460ff16600281111561149557fe5b60028111156114a057fe5b8152602001600482015481525050915060008083602001516000191660001916815260200190815260200160002060e06040519081016040529081600082018054600181600116156101000203166002900480601f0160208091040260200160405190810160405280929190818152602001828054600181600116156101000203166002900480156115735780601f1061154857610100808354040283529160200191611573565b820191906000526020600020905b81548152906001019060200180831161155657829003601f168201915b505050505081526020016001820160009054906101000a900473ffffffffffffffffffffffffffffffffffffffff1673ffffffffffffffffffffffffffffffffffffffff1673ffffffffffffffffffffffffffffffffffffffff1681526020016002820160009054906101000a900473ffffffffffffffffffffffffffffffffffffffff1673ffffffffffffffffffffffffffffffffffffffff1673ffffffffffffffffffffffffffffffffffffffff16815260200160038201548152602001600482018054600181600116156101000203166002900480601f0160208091040260200160405190810160405280929190818152602001828054600181600116156101000203166002900480156116cb5780601f106116a0576101008083540402835291602001916116cb565b820191906000526020600020905b8154815290600101906020018083116116ae57829003601f168201915b505050505081526020016005820160009054906101000a900460ff1660018111156116f257fe5b60018111156116fd57fe5b815260200160068201548152505090503373ffffffffffffffffffffffffffffffffffffffff16816020015173ffffffffffffffffffffffffffffffffffffffff1614151561174b57600080fd5b60016000896000191660001916815260200190815260200160002096506000808860010154600019166000191681526020019081526020016000209550600260008860000160009054906101000a900473ffffffffffffffffffffffffffffffffffffffff1673ffffffffffffffffffffffffffffffffffffffff1673ffffffffffffffffffffffffffffffffffffffff168152602001908152602001600020548660030154600260008a60000160009054906101000a900473ffffffffffffffffffffffffffffffffffffffff1673ffffffffffffffffffffffffffffffffffffffff1673ffffffffffffffffffffffffffffffffffffffff16815260200190815260200160002054011015151561186357600080fd5b8560030154600260008960000160009054906101000a900473ffffffffffffffffffffffffffffffffffffffff1673ffffffffffffffffffffffffffffffffffffffff1673ffffffffffffffffffffffffffffffffffffffff1681526020019081526020016000206000828254019250508190555060018760030160006101000a81548160ff021916908360028111156118f957fe5b021790555060018660050160006101000a81548160ff0219169083600181111561191f57fe5b02179055505050505050505050565b6000611938611e56565b600042925060e0604051908101604052808681526020013373ffffffffffffffffffffffffffffffffffffffff168152602001600073ffffffffffffffffffffffffffffffffffffffff168152602001348152602001858152602001600060018111156119a157fe5b81526020018481525091503385348686604051602001808673ffffffffffffffffffffffffffffffffffffffff1673ffffffffffffffffffffffffffffffffffffffff166c0100000000000000000000000002815260140185805190602001908083835b602083101515611a2a5780518252602082019150602081019050602083039250611a05565b6001836020036101000a03801982511681845116808217855250505050505090500184815260200183805190602001908083835b602083101515611a835780518252602082019150602081019050602083039250611a5e565b6001836020036101000a038019825116818451168082178552505050505050905001828152602001955050505050506040516020818303038152906040526040518082805190602001908083835b602083101515611af65780518252602082019150602081019050602083039250611ad1565b6001836020036101000a038019825116818451168082178552505050505050905001915050604051809103902090508160008083600019166000191681526020019081526020016000206000820151816000019080519060200190611b5c929190611f1f565b5060208201518160010160006101000a81548173ffffffffffffffffffffffffffffffffffffffff021916908373ffffffffffffffffffffffffffffffffffffffff16021790555060408201518160020160006101000a81548173ffffffffffffffffffffffffffffffffffffffff021916908373ffffffffffffffffffffffffffffffffffffffff160217905550606082015181600301556080820151816004019080519060200190611c11929190611f1f565b5060a08201518160050160006101000a81548160ff02191690836001811115611c3657fe5b021790555060c082015181600601559050503373ffffffffffffffffffffffffffffffffffffffff1681600019167f3ba5a355e94abaa785fc7ce1f7d985750dc7b561c514eb539e275b3526bd264d60405160405180910390a35050505050565b6000602052806000526040600020600091509050806000018054600181600116156101000203166002900480601f016020809104026020016040519081016040528092919081815260200182805460018160011615610100020316600290048015611d435780601f10611d1857610100808354040283529160200191611d43565b820191906000526020600020905b815481529060010190602001808311611d2657829003601f168201915b5050505050908060010160009054906101000a900473ffffffffffffffffffffffffffffffffffffffff16908060020160009054906101000a900473ffffffffffffffffffffffffffffffffffffffff1690806003015490806004018054600181600116156101000203166002900480601f016020809104026020016040519081016040528092919081815260200182805460018160011615610100020316600290048015611e335780601f10611e0857610100808354040283529160200191611e33565b820191906000526020600020905b815481529060010190602001808311611e1657829003601f168201915b5050505050908060050160009054906101000a900460ff16908060060154905087565b60e06040519081016040528060608152602001600073ffffffffffffffffffffffffffffffffffffffff168152602001600073ffffffffffffffffffffffffffffffffffffffff168152602001600081526020016060815260200160006001811115611ebe57fe5b8152602001600081525090565b60a060405190810160405280600073ffffffffffffffffffffffffffffffffffffffff168152602001600080191681526020016060815260200160006002811115611f1257fe5b8152602001600081525090565b828054600181600116156101000203166002900490600052602060002090601f016020900481019282601f10611f6057805160ff1916838001178555611f8e565b82800160010185558215611f8e579182015b82811115611f8d578251825591602001919060010190611f72565b5b509050611f9b9190611f9f565b5090565b611fc191905b80821115611fbd576000816000905550600101611fa5565b5090565b905600a165627a7a723058200e54fc1a738ec073ad8ae39391384ea174e2910e8ff96c7471d9858cc7aeb2bc0029",
  "source": "pragma solidity ^0.4.18;\n\n/** @title Bounty Buster. */\ncontract BountyBuster {\n  enum TaskStatus { Posted, Completed }\n  enum RequestStatus { Pending, Accepted, Rejected }\n\n  struct Task {\n    bytes title;\n    address poster;\n    address hunter;\n    uint reward;\n    bytes description;\n    TaskStatus status;\n    uint created_at;\n  }\n  struct Request {\n    address requester;\n    bytes32 taskHash;\n    bytes message;\n    RequestStatus status;\n    uint created_at;\n  }\n\n  event TaskAdded(bytes32 indexed taskHash, address indexed poster);\n  event TaskRequested(bytes32 requestHash, bytes32 indexed taskHash, address indexed requester);\n\n  mapping(bytes32 => Task) public tasks;\n  mapping(bytes32 => Request) public requests;\n  mapping(address => uint) public balances;\n\n  /** @dev Adds task.\n    * @param _title Title of the task.\n    * @param _description Description of the task.\n    */\n  function addTask(bytes _title, bytes _description)\n  public\n  payable\n  {\n    uint _createdAt = block.timestamp;\n    Task memory newTask = Task({\n      poster: msg.sender,\n      hunter: 0,\n      title: _title,\n      reward: msg.value,\n      description: _description,\n      status: TaskStatus.Posted,\n      created_at: _createdAt\n    });\n    bytes32 taskHash = keccak256(abi.encodePacked(msg.sender, _title, msg.value, _description, _createdAt));\n    tasks[taskHash] = newTask;\n    emit TaskAdded(taskHash, msg.sender);\n  }\n\n  /** @dev Submits request for a task.\n    * @param _taskHash Hash of the task.\n    * @param _message Message containing work for task.\n    */\n  function submitRequest(bytes32 _taskHash, bytes _message)\n  public\n  {\n    Task memory task = tasks[_taskHash];\n    require(task.poster != msg.sender);\n    uint _createdAt = block.timestamp;\n    Request memory newRequest = Request({\n      requester: msg.sender,\n      taskHash: _taskHash,\n      message: _message,\n      status: RequestStatus.Pending,\n      created_at: _createdAt\n    });\n    bytes32 requestHash = keccak256(abi.encodePacked(msg.sender, _taskHash, _message, _createdAt));\n    requests[requestHash] = newRequest;\n    emit TaskRequested(requestHash, _taskHash, msg.sender);\n  }\n\n  modifier requestMustExist(bytes32 _requestHash) {\n    Request memory request = requests[_requestHash];\n    require(request.requester != address(0));\n    _;\n  }\n  modifier mustBeTaskPoster(bytes32 _requestHash) {\n    Request memory request = requests[_requestHash];\n    Task memory task = tasks[request.taskHash];\n    require(task.poster == msg.sender);\n    _;\n  }\n\n  function acceptRequest(bytes32 _requestHash)\n  public\n  requestMustExist(_requestHash)\n  mustBeTaskPoster(_requestHash)\n  {\n    Request storage request = requests[_requestHash];\n    Task storage task = tasks[request.taskHash];\n    require(balances[request.requester] + task.reward >= balances[request.requester]);\n    balances[request.requester] += task.reward;\n    request.status = RequestStatus.Accepted;\n    task.status = TaskStatus.Completed;\n  }\n\n  function rejectRequest(bytes32 _requestHash)\n  public\n  requestMustExist(_requestHash)\n  mustBeTaskPoster(_requestHash)\n  {\n    Request storage request = requests[_requestHash];\n    request.status = RequestStatus.Rejected;\n  }\n}\n",
  "sourcePath": "/Users/jemilezzet/development/consensys/bounty-buster/contracts/BountyBuster.sol",
  "compiler": {
    "name": "solc",
    "version": "0.4.24+commit.e67f0147.Emscripten.clang"
  },
  "schemaVersion": "2.0.1",
  "updatedAt": "2018-08-25T22:36:37.624Z"
}