{
  "contractName": "BountyBuster",
  "abi": [
    {
      "constant": true,
      "inputs": [
        {
          "name": "",
          "type": "address"
        }
      ],
      "name": "balances",
      "outputs": [
        {
          "name": "",
          "type": "uint256"
        }
      ],
      "payable": false,
      "stateMutability": "view",
      "type": "function"
    },
    {
      "constant": true,
      "inputs": [
        {
          "name": "",
          "type": "bytes32"
        }
      ],
      "name": "requests",
      "outputs": [
        {
          "name": "requester",
          "type": "address"
        },
        {
          "name": "taskHash",
          "type": "bytes32"
        },
        {
          "name": "message",
          "type": "bytes"
        },
        {
          "name": "status",
          "type": "uint8"
        },
        {
          "name": "created_at",
          "type": "uint256"
        }
      ],
      "payable": false,
      "stateMutability": "view",
      "type": "function"
    },
    {
      "constant": true,
      "inputs": [
        {
          "name": "",
          "type": "bytes32"
        }
      ],
      "name": "tasks",
      "outputs": [
        {
          "name": "title",
          "type": "bytes"
        },
        {
          "name": "poster",
          "type": "address"
        },
        {
          "name": "hunter",
          "type": "address"
        },
        {
          "name": "reward",
          "type": "uint256"
        },
        {
          "name": "description",
          "type": "bytes"
        },
        {
          "name": "status",
          "type": "uint8"
        },
        {
          "name": "created_at",
          "type": "uint256"
        }
      ],
      "payable": false,
      "stateMutability": "view",
      "type": "function"
    },
    {
      "anonymous": false,
      "inputs": [
        {
          "indexed": true,
          "name": "taskHash",
          "type": "bytes32"
        },
        {
          "indexed": true,
          "name": "poster",
          "type": "address"
        }
      ],
      "name": "TaskAdded",
      "type": "event"
    },
    {
      "anonymous": false,
      "inputs": [
        {
          "indexed": false,
          "name": "requestHash",
          "type": "bytes32"
        },
        {
          "indexed": true,
          "name": "taskHash",
          "type": "bytes32"
        },
        {
          "indexed": true,
          "name": "requester",
          "type": "address"
        }
      ],
      "name": "TaskRequested",
      "type": "event"
    },
    {
      "constant": false,
      "inputs": [
        {
          "name": "_title",
          "type": "bytes"
        },
        {
          "name": "_description",
          "type": "bytes"
        }
      ],
      "name": "addTask",
      "outputs": [
        {
          "name": "",
          "type": "bytes32"
        }
      ],
      "payable": true,
      "stateMutability": "payable",
      "type": "function"
    },
    {
      "constant": false,
      "inputs": [
        {
          "name": "_taskHash",
          "type": "bytes32"
        },
        {
          "name": "_message",
          "type": "bytes"
        }
      ],
      "name": "submitRequest",
      "outputs": [],
      "payable": false,
      "stateMutability": "nonpayable",
      "type": "function"
    },
    {
      "constant": false,
      "inputs": [
        {
          "name": "_requestHash",
          "type": "bytes32"
        }
      ],
      "name": "acceptRequest",
      "outputs": [],
      "payable": false,
      "stateMutability": "nonpayable",
      "type": "function"
    },
    {
      "constant": false,
      "inputs": [
        {
          "name": "_requestHash",
          "type": "bytes32"
        }
      ],
      "name": "rejectRequest",
      "outputs": [],
      "payable": false,
      "stateMutability": "nonpayable",
      "type": "function"
    }
  ],
  "bytecode": "0x608060405234801561001057600080fd5b506113fc806100206000396000f300608060405260043610610083576000357c0100000000000000000000000000000000000000000000000000000000900463ffffffff16806327e235e3146100885780634e552bc5146100df57806395587d03146101565780639d86698514610187578063a721cd301461028f578063c2079724146102c0578063e579f5001461037e575b600080fd5b34801561009457600080fd5b506100c9600480360381019080803573ffffffffffffffffffffffffffffffffffffffff16906020019092919050505061051d565b6040518082815260200191505060405180910390f35b3480156100eb57600080fd5b506101546004803603810190808035600019169060200190929190803590602001908201803590602001908080601f0160208091040260200160405190810160405280939291908181526020018383808284378201915050505050509192919290505050610535565b005b34801561016257600080fd5b5061018560048036038101908080356000191690602001909291905050506107e8565b005b34801561019357600080fd5b506101b66004803603810190808035600019169060200190929190505050610ad5565b604051808673ffffffffffffffffffffffffffffffffffffffff1673ffffffffffffffffffffffffffffffffffffffff16815260200185600019166000191681526020018060200184600281111561020a57fe5b60ff168152602001838152602001828103825285818151815260200191508051906020019080838360005b83811015610250578082015181840152602081019050610235565b50505050905090810190601f16801561027d5780820380516001836020036101000a031916815260200191505b50965050505050505060405180910390f35b34801561029b57600080fd5b506102be6004803603810190808035600019169060200190929190505050610bd0565b005b610360600480360381019080803590602001908201803590602001908080601f0160208091040260200160405190810160405280939291908181526020018383808284378201915050505050509192919290803590602001908201803590602001908080601f0160208091040260200160405190810160405280939291908181526020018383808284378201915050505050509192919290505050610d34565b60405180826000191660001916815260200191505060405180910390f35b34801561038a57600080fd5b506103ad60048036038101908080356000191690602001909291905050506110a3565b60405180806020018873ffffffffffffffffffffffffffffffffffffffff1673ffffffffffffffffffffffffffffffffffffffff1681526020018773ffffffffffffffffffffffffffffffffffffffff1673ffffffffffffffffffffffffffffffffffffffff1681526020018681526020018060200185600181111561042f57fe5b60ff16815260200184815260200183810383528a818151815260200191508051906020019080838360005b8381101561047557808201518184015260208101905061045a565b50505050905090810190601f1680156104a25780820380516001836020036101000a031916815260200191505b50838103825286818151815260200191508051906020019080838360005b838110156104db5780820151818401526020810190506104c0565b50505050905090810190601f1680156105085780820380516001836020036101000a031916815260200191505b50995050505050505050505060405180910390f35b60026020528060005260406000206000915090505481565b600061053f611262565b600042925060a0604051908101604052803373ffffffffffffffffffffffffffffffffffffffff168152602001866000191681526020018581526020016000600281111561058957fe5b815260200184815250915033858585604051602001808573ffffffffffffffffffffffffffffffffffffffff1673ffffffffffffffffffffffffffffffffffffffff166c01000000000000000000000000028152601401846000191660001916815260200183805190602001908083835b60208310151561061f57805182526020820191506020810190506020830392506105fa565b6001836020036101000a0380198251168184511680821785525050505050509050018281526020019450505050506040516020818303038152906040526040518082805190602001908083835b602083101515610691578051825260208201915060208101905060208303925061066c565b6001836020036101000a038019825116818451168082178552505050505050905001915050604051809103902090508160016000836000191660001916815260200190815260200160002060008201518160000160006101000a81548173ffffffffffffffffffffffffffffffffffffffff021916908373ffffffffffffffffffffffffffffffffffffffff16021790555060208201518160010190600019169055604082015181600201908051906020019061074f9291906112b6565b5060608201518160030160006101000a81548160ff0219169083600281111561077457fe5b0217905550608082015181600401559050503373ffffffffffffffffffffffffffffffffffffffff1685600019167f96bd54e22b73f861fdbf2b33846ab39a2ddafc0a4bb6ee9a104cb2451c8138b48360405180826000191660001916815260200191505060405180910390a35050505050565b60006107f2611336565b600160008460001916600019168152602001908152602001600020915060008083600101546000191660001916815260200190815260200160002060e06040519081016040529081600082018054600181600116156101000203166002900480601f0160208091040260200160405190810160405280929190818152602001828054600181600116156101000203166002900480156108d25780601f106108a7576101008083540402835291602001916108d2565b820191906000526020600020905b8154815290600101906020018083116108b557829003601f168201915b505050505081526020016001820160009054906101000a900473ffffffffffffffffffffffffffffffffffffffff1673ffffffffffffffffffffffffffffffffffffffff1673ffffffffffffffffffffffffffffffffffffffff1681526020016002820160009054906101000a900473ffffffffffffffffffffffffffffffffffffffff1673ffffffffffffffffffffffffffffffffffffffff1673ffffffffffffffffffffffffffffffffffffffff16815260200160038201548152602001600482018054600181600116156101000203166002900480601f016020809104026020016040519081016040528092919081815260200182805460018160011615610100020316600290048015610a2a5780601f106109ff57610100808354040283529160200191610a2a565b820191906000526020600020905b815481529060010190602001808311610a0d57829003601f168201915b505050505081526020016005820160009054906101000a900460ff166001811115610a5157fe5b6001811115610a5c57fe5b815260200160068201548152505090503373ffffffffffffffffffffffffffffffffffffffff16816020015173ffffffffffffffffffffffffffffffffffffffff16141515610aaa57600080fd5b60028260030160006101000a81548160ff02191690836002811115610acb57fe5b0217905550505050565b60016020528060005260406000206000915090508060000160009054906101000a900473ffffffffffffffffffffffffffffffffffffffff1690806001015490806002018054600181600116156101000203166002900480601f016020809104026020016040519081016040528092919081815260200182805460018160011615610100020316600290048015610bad5780601f10610b8257610100808354040283529160200191610bad565b820191906000526020600020905b815481529060010190602001808311610b9057829003601f168201915b5050505050908060030160009054906101000a900460ff16908060040154905085565b600080600160008460001916600019168152602001908152602001600020915060008083600101546000191660001916815260200190815260200160002090503373ffffffffffffffffffffffffffffffffffffffff168160010160009054906101000a900473ffffffffffffffffffffffffffffffffffffffff1673ffffffffffffffffffffffffffffffffffffffff16141515610c6e57600080fd5b8060030154600260008460000160009054906101000a900473ffffffffffffffffffffffffffffffffffffffff1673ffffffffffffffffffffffffffffffffffffffff1673ffffffffffffffffffffffffffffffffffffffff1681526020019081526020016000206000828254019250508190555060018260030160006101000a81548160ff02191690836002811115610d0457fe5b021790555060018160050160006101000a81548160ff02191690836001811115610d2a57fe5b0217905550505050565b600080610d3f611336565b600042925060e0604051908101604052808781526020013373ffffffffffffffffffffffffffffffffffffffff168152602001600073ffffffffffffffffffffffffffffffffffffffff16815260200134815260200186815260200160006001811115610da857fe5b81526020018481525091503386348786604051602001808673ffffffffffffffffffffffffffffffffffffffff1673ffffffffffffffffffffffffffffffffffffffff166c0100000000000000000000000002815260140185805190602001908083835b602083101515610e315780518252602082019150602081019050602083039250610e0c565b6001836020036101000a03801982511681845116808217855250505050505090500184815260200183805190602001908083835b602083101515610e8a5780518252602082019150602081019050602083039250610e65565b6001836020036101000a038019825116818451168082178552505050505050905001828152602001955050505050506040516020818303038152906040526040518082805190602001908083835b602083101515610efd5780518252602082019150602081019050602083039250610ed8565b6001836020036101000a038019825116818451168082178552505050505050905001915050604051809103902090508160008083600019166000191681526020019081526020016000206000820151816000019080519060200190610f639291906112b6565b5060208201518160010160006101000a81548173ffffffffffffffffffffffffffffffffffffffff021916908373ffffffffffffffffffffffffffffffffffffffff16021790555060408201518160020160006101000a81548173ffffffffffffffffffffffffffffffffffffffff021916908373ffffffffffffffffffffffffffffffffffffffff1602179055506060820151816003015560808201518160040190805190602001906110189291906112b6565b5060a08201518160050160006101000a81548160ff0219169083600181111561103d57fe5b021790555060c082015181600601559050503373ffffffffffffffffffffffffffffffffffffffff1681600019167f3ba5a355e94abaa785fc7ce1f7d985750dc7b561c514eb539e275b3526bd264d60405160405180910390a380935050505092915050565b6000602052806000526040600020600091509050806000018054600181600116156101000203166002900480601f01602080910402602001604051908101604052809291908181526020018280546001816001161561010002031660029004801561114f5780601f106111245761010080835404028352916020019161114f565b820191906000526020600020905b81548152906001019060200180831161113257829003601f168201915b5050505050908060010160009054906101000a900473ffffffffffffffffffffffffffffffffffffffff16908060020160009054906101000a900473ffffffffffffffffffffffffffffffffffffffff1690806003015490806004018054600181600116156101000203166002900480601f01602080910402602001604051908101604052809291908181526020018280546001816001161561010002031660029004801561123f5780601f106112145761010080835404028352916020019161123f565b820191906000526020600020905b81548152906001019060200180831161122257829003601f168201915b5050505050908060050160009054906101000a900460ff16908060060154905087565b60a060405190810160405280600073ffffffffffffffffffffffffffffffffffffffff1681526020016000801916815260200160608152602001600060028111156112a957fe5b8152602001600081525090565b828054600181600116156101000203166002900490600052602060002090601f016020900481019282601f106112f757805160ff1916838001178555611325565b82800160010185558215611325579182015b82811115611324578251825591602001919060010190611309565b5b50905061133291906113ab565b5090565b60e06040519081016040528060608152602001600073ffffffffffffffffffffffffffffffffffffffff168152602001600073ffffffffffffffffffffffffffffffffffffffff16815260200160008152602001606081526020016000600181111561139e57fe5b8152602001600081525090565b6113cd91905b808211156113c95760008160009055506001016113b1565b5090565b905600a165627a7a723058207ac5fa25526ea212f0795635aed2ee2a6783bbf26c9e2f2c498ed5bbbe19ede30029",
  "source": "pragma solidity ^0.4.18;\n\n/** @title Bounty Buster. */\ncontract BountyBuster {\n  enum TaskStatus { Posted, Completed }\n  enum RequestStatus { Pending, Accepted, Rejected }\n\n  struct Task {\n    bytes title;\n    address poster;\n    address hunter;\n    uint reward;\n    bytes description;\n    TaskStatus status;\n    uint created_at;\n  }\n  struct Request {\n    address requester;\n    bytes32 taskHash;\n    bytes message;\n    RequestStatus status;\n    uint created_at;\n  }\n\n  event TaskAdded(bytes32 indexed taskHash, address indexed poster);\n  event TaskRequested(bytes32 requestHash, bytes32 indexed taskHash, address indexed requester);\n\n  mapping(bytes32 => Task) public tasks;\n  mapping(bytes32 => Request) public requests;\n  mapping(address => uint) public balances;\n  /** @dev Adds task.\n    * @param _title Title of the task.\n    * @param _description Description of the task.\n    * @return taskHash The hash of the Task.\n    */\n  function addTask(bytes _title, bytes _description)\n  public\n  payable\n  returns (bytes32)\n  {\n    uint _createdAt = block.timestamp;\n    Task memory newTask = Task({\n      poster: msg.sender,\n      hunter: 0,\n      title: _title,\n      reward: msg.value,\n      description: _description,\n      status: TaskStatus.Posted,\n      created_at: _createdAt\n    });\n    bytes32 taskHash = keccak256(abi.encodePacked(msg.sender, _title, msg.value, _description, _createdAt));\n    tasks[taskHash] = newTask;\n    emit TaskAdded(taskHash, msg.sender);\n    return taskHash;\n  }\n\n  function submitRequest(bytes32 _taskHash, bytes _message)\n  public\n  {\n    uint _createdAt = block.timestamp;\n    Request memory newRequest = Request({\n      requester: msg.sender,\n      taskHash: _taskHash,\n      message: _message,\n      status: RequestStatus.Pending,\n      created_at: _createdAt\n    });\n    bytes32 requestHash = keccak256(abi.encodePacked(msg.sender, _taskHash, _message, _createdAt));\n    requests[requestHash] = newRequest;\n    emit TaskRequested(requestHash, _taskHash, msg.sender);\n  }\n\n  function acceptRequest(bytes32 _requestHash)\n  public\n  {\n    Request storage request = requests[_requestHash];\n    Task storage task = tasks[request.taskHash];\n    require(task.poster == msg.sender);\n    balances[request.requester] += task.reward;\n    request.status = RequestStatus.Accepted;\n    task.status = TaskStatus.Completed;\n  }\n\n  function rejectRequest(bytes32 _requestHash)\n  public\n  {\n    Request storage request = requests[_requestHash];\n    Task memory task = tasks[request.taskHash];\n    require(task.poster == msg.sender);\n    request.status = RequestStatus.Rejected;\n  }\n}\n",
  "sourcePath": "/Users/jemilezzet/development/consensys/bounty-buster/contracts/BountyBuster.sol",
  "compiler": {
    "name": "solc",
    "version": "0.4.24+commit.e67f0147.Emscripten.clang"
  },
  "schemaVersion": "2.0.1",
  "updatedAt": "2018-08-14T22:41:23.821Z"
}