{
  "contractName": "BountyBuster",
  "abi": [
    {
      "constant": true,
      "inputs": [
        {
          "name": "",
          "type": "bytes32"
        }
      ],
      "name": "tasks",
      "outputs": [
        {
          "name": "title",
          "type": "bytes"
        },
        {
          "name": "poster",
          "type": "address"
        },
        {
          "name": "hunter",
          "type": "address"
        },
        {
          "name": "reward",
          "type": "uint256"
        },
        {
          "name": "description",
          "type": "bytes"
        },
        {
          "name": "created_at",
          "type": "uint256"
        }
      ],
      "payable": false,
      "stateMutability": "view",
      "type": "function"
    },
    {
      "anonymous": false,
      "inputs": [
        {
          "indexed": false,
          "name": "taskHash",
          "type": "bytes32"
        }
      ],
      "name": "TaskAdded",
      "type": "event"
    },
    {
      "constant": false,
      "inputs": [
        {
          "name": "_title",
          "type": "bytes"
        },
        {
          "name": "_description",
          "type": "bytes"
        }
      ],
      "name": "addTask",
      "outputs": [],
      "payable": true,
      "stateMutability": "payable",
      "type": "function"
    }
  ],
  "bytecode": "0x608060405234801561001057600080fd5b50610886806100206000396000f30060806040526004361061004c576000357c0100000000000000000000000000000000000000000000000000000000900463ffffffff168063c207972414610051578063e579f500146100f3575b600080fd5b6100f1600480360381019080803590602001908201803590602001908080601f0160208091040260200160405190810160405280939291908181526020018383808284378201915050505050509192919290803590602001908201803590602001908080601f016020809104026020016040519081016040528093929190818152602001838380828437820191505050505050919291929050505061027d565b005b3480156100ff57600080fd5b5061012260048036038101908080356000191690602001909291905050506105a6565b60405180806020018773ffffffffffffffffffffffffffffffffffffffff1673ffffffffffffffffffffffffffffffffffffffff1681526020018673ffffffffffffffffffffffffffffffffffffffff1673ffffffffffffffffffffffffffffffffffffffff16815260200185815260200180602001848152602001838103835289818151815260200191508051906020019080838360005b838110156101d65780820151818401526020810190506101bb565b50505050905090810190601f1680156102035780820380516001836020036101000a031916815260200191505b50838103825285818151815260200191508051906020019080838360005b8381101561023c578082015181840152602081019050610221565b50505050905090810190601f1680156102695780820380516001836020036101000a031916815260200191505b509850505050505050505060405180910390f35b6000610287610752565b600042925060c0604051908101604052808681526020013373ffffffffffffffffffffffffffffffffffffffff168152602001600073ffffffffffffffffffffffffffffffffffffffff168152602001348152602001858152602001848152509150816020015185348686604051602001808673ffffffffffffffffffffffffffffffffffffffff1673ffffffffffffffffffffffffffffffffffffffff166c0100000000000000000000000002815260140185805190602001908083835b60208310151561036b5780518252602082019150602081019050602083039250610346565b6001836020036101000a03801982511681845116808217855250505050505090500184815260200183805190602001908083835b6020831015156103c4578051825260208201915060208101905060208303925061039f565b6001836020036101000a038019825116818451168082178552505050505050905001828152602001955050505050506040516020818303038152906040526040518082805190602001908083835b6020831015156104375780518252602082019150602081019050602083039250610412565b6001836020036101000a03801982511681845116808217855250505050505090500191505060405180910390209050816000808360001916600019168152602001908152602001600020600082015181600001908051906020019061049d9291906107b5565b5060208201518160010160006101000a81548173ffffffffffffffffffffffffffffffffffffffff021916908373ffffffffffffffffffffffffffffffffffffffff16021790555060408201518160020160006101000a81548173ffffffffffffffffffffffffffffffffffffffff021916908373ffffffffffffffffffffffffffffffffffffffff1602179055506060820151816003015560808201518160040190805190602001906105529291906107b5565b5060a082015181600501559050507f122220e26ff6b35f7aa4be1a923e48475590096ef91d209c606e85b3b54d893c8160405180826000191660001916815260200191505060405180910390a15050505050565b6000602052806000526040600020600091509050806000018054600181600116156101000203166002900480601f0160208091040260200160405190810160405280929190818152602001828054600181600116156101000203166002900480156106525780601f1061062757610100808354040283529160200191610652565b820191906000526020600020905b81548152906001019060200180831161063557829003601f168201915b5050505050908060010160009054906101000a900473ffffffffffffffffffffffffffffffffffffffff16908060020160009054906101000a900473ffffffffffffffffffffffffffffffffffffffff1690806003015490806004018054600181600116156101000203166002900480601f0160208091040260200160405190810160405280929190818152602001828054600181600116156101000203166002900480156107425780601f1061071757610100808354040283529160200191610742565b820191906000526020600020905b81548152906001019060200180831161072557829003601f168201915b5050505050908060050154905086565b60c06040519081016040528060608152602001600073ffffffffffffffffffffffffffffffffffffffff168152602001600073ffffffffffffffffffffffffffffffffffffffff1681526020016000815260200160608152602001600081525090565b828054600181600116156101000203166002900490600052602060002090601f016020900481019282601f106107f657805160ff1916838001178555610824565b82800160010185558215610824579182015b82811115610823578251825591602001919060010190610808565b5b5090506108319190610835565b5090565b61085791905b8082111561085357600081600090555060010161083b565b5090565b905600a165627a7a72305820d876aa343e128d82e870a2dae3d67a5a76d74262c735bf3e22b221426852b9ca0029",
  "source": "pragma solidity ^0.4.18;\n\ncontract BountyBuster {\n  struct Task {\n    bytes title;\n    address poster;\n    address hunter;\n    uint reward;\n    bytes description;\n    uint created_at;\n  }\n\n  mapping(bytes32 => Task) public tasks;\n\n  event TaskAdded(bytes32 taskHash);\n\n  function addTask(bytes _title, bytes _description)\n  public\n  payable\n  {\n    uint _createdAt = block.timestamp;\n    Task memory newTask = Task({\n      poster: msg.sender,\n      hunter: 0,\n      title: _title,\n      reward: msg.value,\n      description: _description,\n      created_at: _createdAt\n    });\n    bytes32 taskHash = keccak256(abi.encodePacked(newTask.poster, _title, msg.value, _description, _createdAt));\n    tasks[taskHash] = newTask;\n    emit TaskAdded(taskHash);\n  }\n}\n",
  "sourcePath": "/Users/jemilezzet/development/consensys/bounty_buster/contracts/BountyBuster.sol",
  "compiler": {
    "name": "solc",
    "version": "0.4.24+commit.e67f0147.Emscripten.clang"
  },
  "schemaVersion": "2.0.1",
  "updatedAt": "2018-07-30T00:05:11.559Z"
}