{
  "contractName": "BountyBuster",
  "abi": [
    {
      "constant": true,
      "inputs": [
        {
          "name": "",
          "type": "bytes32"
        }
      ],
      "name": "tasks",
      "outputs": [
        {
          "name": "poster",
          "type": "address"
        },
        {
          "name": "hunter",
          "type": "address"
        },
        {
          "name": "reward",
          "type": "uint256"
        },
        {
          "name": "description",
          "type": "bytes"
        }
      ],
      "payable": false,
      "stateMutability": "view",
      "type": "function"
    },
    {
      "anonymous": false,
      "inputs": [
        {
          "indexed": false,
          "name": "taskHash",
          "type": "bytes32"
        }
      ],
      "name": "TaskAdded",
      "type": "event"
    },
    {
      "constant": false,
      "inputs": [
        {
          "name": "_reward",
          "type": "uint256"
        },
        {
          "name": "_description",
          "type": "bytes"
        }
      ],
      "name": "addTask",
      "outputs": [],
      "payable": true,
      "stateMutability": "payable",
      "type": "function"
    }
  ],
  "bytecode": "0x608060405234801561001057600080fd5b5061068f806100206000396000f30060806040526004361061004c576000357c0100000000000000000000000000000000000000000000000000000000900463ffffffff168063757d29c814610051578063e579f500146100b7575b600080fd5b6100b560048036038101908080359060200190929190803590602001908201803590602001908080601f01602080910402602001604051908101604052809392919081815260200183838082843782019150505050505091929192905050506101ce565b005b3480156100c357600080fd5b506100e66004803603810190808035600019169060200190929190505050610461565b604051808573ffffffffffffffffffffffffffffffffffffffff1673ffffffffffffffffffffffffffffffffffffffff1681526020018473ffffffffffffffffffffffffffffffffffffffff1673ffffffffffffffffffffffffffffffffffffffff16815260200183815260200180602001828103825283818151815260200191508051906020019080838360005b83811015610190578082015181840152602081019050610175565b50505050905090810190601f1680156101bd5780820380516001836020036101000a031916815260200191505b509550505050505060405180910390f35b6101d6610569565b60006080604051908101604052803373ffffffffffffffffffffffffffffffffffffffff168152602001600073ffffffffffffffffffffffffffffffffffffffff16815260200185815260200184815250915081600001518484604051602001808473ffffffffffffffffffffffffffffffffffffffff1673ffffffffffffffffffffffffffffffffffffffff166c0100000000000000000000000002815260140183815260200182805190602001908083835b6020831015156102af578051825260208201915060208101905060208303925061028a565b6001836020036101000a03801982511681845116808217855250505050505090500193505050506040516020818303038152906040526040518082805190602001908083835b60208310151561031a57805182526020820191506020810190506020830392506102f5565b6001836020036101000a0380198251168184511680821785525050505050509050019150506040518091039020905081600080836000191660001916815260200190815260200160002060008201518160000160006101000a81548173ffffffffffffffffffffffffffffffffffffffff021916908373ffffffffffffffffffffffffffffffffffffffff16021790555060208201518160010160006101000a81548173ffffffffffffffffffffffffffffffffffffffff021916908373ffffffffffffffffffffffffffffffffffffffff1602179055506040820151816002015560608201518160030190805190602001906104189291906105be565b509050507f122220e26ff6b35f7aa4be1a923e48475590096ef91d209c606e85b3b54d893c8160405180826000191660001916815260200191505060405180910390a150505050565b60006020528060005260406000206000915090508060000160009054906101000a900473ffffffffffffffffffffffffffffffffffffffff16908060010160009054906101000a900473ffffffffffffffffffffffffffffffffffffffff1690806002015490806003018054600181600116156101000203166002900480601f01602080910402602001604051908101604052809291908181526020018280546001816001161561010002031660029004801561055f5780601f106105345761010080835404028352916020019161055f565b820191906000526020600020905b81548152906001019060200180831161054257829003601f168201915b5050505050905084565b608060405190810160405280600073ffffffffffffffffffffffffffffffffffffffff168152602001600073ffffffffffffffffffffffffffffffffffffffff16815260200160008152602001606081525090565b828054600181600116156101000203166002900490600052602060002090601f016020900481019282601f106105ff57805160ff191683800117855561062d565b8280016001018555821561062d579182015b8281111561062c578251825591602001919060010190610611565b5b50905061063a919061063e565b5090565b61066091905b8082111561065c576000816000905550600101610644565b5090565b905600a165627a7a72305820721c537f0506c9bf6f2dcc70d091caeede848aa868457b125ed00fce40b2f7980029",
  "source": "pragma solidity ^0.4.18;\n\ncontract BountyBuster {\n  struct Task {\n    address poster;\n    address hunter;\n    uint reward;\n    bytes description;\n  }\n\n  mapping(bytes32 => Task) public tasks;\n\n  event TaskAdded(bytes32 taskHash);\n\n  function addTask(uint _reward, bytes _description)\n  public\n  payable\n  {\n    Task memory newTask = Task({\n      poster: msg.sender,\n      hunter: 0,\n      reward: _reward,\n      description: _description\n    });\n    bytes32 taskHash = keccak256(abi.encodePacked(newTask.poster, _reward, _description));\n    tasks[taskHash] = newTask;\n    emit TaskAdded(taskHash);\n  }\n}\n",
  "sourcePath": "/Users/jemilezzet/development/consensys/bounty_buster/contracts/BountyBuster.sol",
  "compiler": {
    "name": "solc",
    "version": "0.4.24+commit.e67f0147.Emscripten.clang"
  },
  "schemaVersion": "2.0.1",
  "updatedAt": "2018-07-24T23:06:34.675Z"
}