{
  "contractName": "BountyBuster",
  "abi": [
    {
      "constant": true,
      "inputs": [
        {
          "name": "",
          "type": "bytes32"
        }
      ],
      "name": "requests",
      "outputs": [
        {
          "name": "requester",
          "type": "address"
        },
        {
          "name": "taskHash",
          "type": "bytes32"
        },
        {
          "name": "message",
          "type": "bytes"
        },
        {
          "name": "status",
          "type": "uint8"
        },
        {
          "name": "created_at",
          "type": "uint256"
        }
      ],
      "payable": false,
      "stateMutability": "view",
      "type": "function"
    },
    {
      "constant": true,
      "inputs": [
        {
          "name": "",
          "type": "bytes32"
        }
      ],
      "name": "tasks",
      "outputs": [
        {
          "name": "title",
          "type": "bytes"
        },
        {
          "name": "poster",
          "type": "address"
        },
        {
          "name": "hunter",
          "type": "address"
        },
        {
          "name": "reward",
          "type": "uint256"
        },
        {
          "name": "description",
          "type": "bytes"
        },
        {
          "name": "status",
          "type": "uint8"
        },
        {
          "name": "created_at",
          "type": "uint256"
        }
      ],
      "payable": false,
      "stateMutability": "view",
      "type": "function"
    },
    {
      "anonymous": false,
      "inputs": [
        {
          "indexed": true,
          "name": "taskHash",
          "type": "bytes32"
        },
        {
          "indexed": true,
          "name": "poster",
          "type": "address"
        }
      ],
      "name": "TaskAdded",
      "type": "event"
    },
    {
      "anonymous": false,
      "inputs": [
        {
          "indexed": false,
          "name": "requestHash",
          "type": "bytes32"
        },
        {
          "indexed": true,
          "name": "taskHash",
          "type": "bytes32"
        },
        {
          "indexed": true,
          "name": "requester",
          "type": "address"
        }
      ],
      "name": "TaskRequested",
      "type": "event"
    },
    {
      "constant": false,
      "inputs": [
        {
          "name": "_title",
          "type": "bytes"
        },
        {
          "name": "_description",
          "type": "bytes"
        }
      ],
      "name": "addTask",
      "outputs": [
        {
          "name": "",
          "type": "bytes32"
        }
      ],
      "payable": true,
      "stateMutability": "payable",
      "type": "function"
    },
    {
      "constant": false,
      "inputs": [
        {
          "name": "_taskHash",
          "type": "bytes32"
        },
        {
          "name": "_message",
          "type": "bytes"
        }
      ],
      "name": "submitRequest",
      "outputs": [],
      "payable": false,
      "stateMutability": "nonpayable",
      "type": "function"
    },
    {
      "constant": false,
      "inputs": [
        {
          "name": "_requestHash",
          "type": "bytes32"
        }
      ],
      "name": "acceptRequest",
      "outputs": [],
      "payable": true,
      "stateMutability": "payable",
      "type": "function"
    },
    {
      "constant": false,
      "inputs": [
        {
          "name": "_requestHash",
          "type": "bytes32"
        }
      ],
      "name": "rejectRequest",
      "outputs": [],
      "payable": false,
      "stateMutability": "nonpayable",
      "type": "function"
    }
  ],
  "bytecode": "0x608060405234801561001057600080fd5b5061106d806100206000396000f300608060405260043610610078576000357c0100000000000000000000000000000000000000000000000000000000900463ffffffff1680634e552bc51461007d57806395587d03146100f45780639d86698514610125578063a721cd301461022d578063c207972414610251578063e579f5001461030f575b600080fd5b34801561008957600080fd5b506100f26004803603810190808035600019169060200190929190803590602001908201803590602001908080601f01602080910402602001604051908101604052809392919081815260200183838082843782019150505050505091929192905050506104ae565b005b34801561010057600080fd5b506101236004803603810190808035600019169060200190929190505050610761565b005b34801561013157600080fd5b5061015460048036038101908080356000191690602001909291905050506107aa565b604051808673ffffffffffffffffffffffffffffffffffffffff1673ffffffffffffffffffffffffffffffffffffffff1681526020018560001916600019168152602001806020018460028111156101a857fe5b60ff168152602001838152602001828103825285818151815260200191508051906020019080838360005b838110156101ee5780820151818401526020810190506101d3565b50505050905090810190601f16801561021b5780820380516001836020036101000a031916815260200191505b50965050505050505060405180910390f35b61024f60048036038101908080356000191690602001909291905050506108a5565b005b6102f1600480360381019080803590602001908201803590602001908080601f0160208091040260200160405190810160405280939291908181526020018383808284378201915050505050509192919290803590602001908201803590602001908080601f01602080910402602001604051908101604052809392919081815260200183838082843782019150505050505091929192905050506109a5565b60405180826000191660001916815260200191505060405180910390f35b34801561031b57600080fd5b5061033e6004803603810190808035600019169060200190929190505050610d14565b60405180806020018873ffffffffffffffffffffffffffffffffffffffff1673ffffffffffffffffffffffffffffffffffffffff1681526020018773ffffffffffffffffffffffffffffffffffffffff1673ffffffffffffffffffffffffffffffffffffffff168152602001868152602001806020018560018111156103c057fe5b60ff16815260200184815260200183810383528a818151815260200191508051906020019080838360005b838110156104065780820151818401526020810190506103eb565b50505050905090810190601f1680156104335780820380516001836020036101000a031916815260200191505b50838103825286818151815260200191508051906020019080838360005b8381101561046c578082015181840152602081019050610451565b50505050905090810190601f1680156104995780820380516001836020036101000a031916815260200191505b50995050505050505050505060405180910390f35b60006104b8610ed3565b600042925060a0604051908101604052803373ffffffffffffffffffffffffffffffffffffffff168152602001866000191681526020018581526020016000600281111561050257fe5b815260200184815250915033858585604051602001808573ffffffffffffffffffffffffffffffffffffffff1673ffffffffffffffffffffffffffffffffffffffff166c01000000000000000000000000028152601401846000191660001916815260200183805190602001908083835b6020831015156105985780518252602082019150602081019050602083039250610573565b6001836020036101000a0380198251168184511680821785525050505050509050018281526020019450505050506040516020818303038152906040526040518082805190602001908083835b60208310151561060a57805182526020820191506020810190506020830392506105e5565b6001836020036101000a038019825116818451168082178552505050505050905001915050604051809103902090508160016000836000191660001916815260200190815260200160002060008201518160000160006101000a81548173ffffffffffffffffffffffffffffffffffffffff021916908373ffffffffffffffffffffffffffffffffffffffff1602179055506020820151816001019060001916905560408201518160020190805190602001906106c8929190610f27565b5060608201518160030160006101000a81548160ff021916908360028111156106ed57fe5b0217905550608082015181600401559050503373ffffffffffffffffffffffffffffffffffffffff1685600019167f96bd54e22b73f861fdbf2b33846ab39a2ddafc0a4bb6ee9a104cb2451c8138b48360405180826000191660001916815260200191505060405180910390a35050505050565b6000600160008360001916600019168152602001908152602001600020905060028160030160006101000a81548160ff021916908360028111156107a157fe5b02179055505050565b60016020528060005260406000206000915090508060000160009054906101000a900473ffffffffffffffffffffffffffffffffffffffff1690806001015490806002018054600181600116156101000203166002900480601f0160208091040260200160405190810160405280929190818152602001828054600181600116156101000203166002900480156108825780601f1061085757610100808354040283529160200191610882565b820191906000526020600020905b81548152906001019060200180831161086557829003601f168201915b5050505050908060030160009054906101000a900460ff16908060040154905085565b600080600160008460001916600019168152602001908152602001600020915060008083600101546000191660001916815260200190815260200160002090508160000160009054906101000a900473ffffffffffffffffffffffffffffffffffffffff1673ffffffffffffffffffffffffffffffffffffffff166108fc82600301549081150290604051600060405180830381858888f19350505050158015610953573d6000803e3d6000fd5b5060018260030160006101000a81548160ff0219169083600281111561097557fe5b021790555060018160050160006101000a81548160ff0219169083600181111561099b57fe5b0217905550505050565b6000806109b0610fa7565b600042925060e0604051908101604052808781526020013373ffffffffffffffffffffffffffffffffffffffff168152602001600073ffffffffffffffffffffffffffffffffffffffff16815260200134815260200186815260200160006001811115610a1957fe5b81526020018481525091503386348786604051602001808673ffffffffffffffffffffffffffffffffffffffff1673ffffffffffffffffffffffffffffffffffffffff166c0100000000000000000000000002815260140185805190602001908083835b602083101515610aa25780518252602082019150602081019050602083039250610a7d565b6001836020036101000a03801982511681845116808217855250505050505090500184815260200183805190602001908083835b602083101515610afb5780518252602082019150602081019050602083039250610ad6565b6001836020036101000a038019825116818451168082178552505050505050905001828152602001955050505050506040516020818303038152906040526040518082805190602001908083835b602083101515610b6e5780518252602082019150602081019050602083039250610b49565b6001836020036101000a038019825116818451168082178552505050505050905001915050604051809103902090508160008083600019166000191681526020019081526020016000206000820151816000019080519060200190610bd4929190610f27565b5060208201518160010160006101000a81548173ffffffffffffffffffffffffffffffffffffffff021916908373ffffffffffffffffffffffffffffffffffffffff16021790555060408201518160020160006101000a81548173ffffffffffffffffffffffffffffffffffffffff021916908373ffffffffffffffffffffffffffffffffffffffff160217905550606082015181600301556080820151816004019080519060200190610c89929190610f27565b5060a08201518160050160006101000a81548160ff02191690836001811115610cae57fe5b021790555060c082015181600601559050503373ffffffffffffffffffffffffffffffffffffffff1681600019167f3ba5a355e94abaa785fc7ce1f7d985750dc7b561c514eb539e275b3526bd264d60405160405180910390a380935050505092915050565b6000602052806000526040600020600091509050806000018054600181600116156101000203166002900480601f016020809104026020016040519081016040528092919081815260200182805460018160011615610100020316600290048015610dc05780601f10610d9557610100808354040283529160200191610dc0565b820191906000526020600020905b815481529060010190602001808311610da357829003601f168201915b5050505050908060010160009054906101000a900473ffffffffffffffffffffffffffffffffffffffff16908060020160009054906101000a900473ffffffffffffffffffffffffffffffffffffffff1690806003015490806004018054600181600116156101000203166002900480601f016020809104026020016040519081016040528092919081815260200182805460018160011615610100020316600290048015610eb05780601f10610e8557610100808354040283529160200191610eb0565b820191906000526020600020905b815481529060010190602001808311610e9357829003601f168201915b5050505050908060050160009054906101000a900460ff16908060060154905087565b60a060405190810160405280600073ffffffffffffffffffffffffffffffffffffffff168152602001600080191681526020016060815260200160006002811115610f1a57fe5b8152602001600081525090565b828054600181600116156101000203166002900490600052602060002090601f016020900481019282601f10610f6857805160ff1916838001178555610f96565b82800160010185558215610f96579182015b82811115610f95578251825591602001919060010190610f7a565b5b509050610fa3919061101c565b5090565b60e06040519081016040528060608152602001600073ffffffffffffffffffffffffffffffffffffffff168152602001600073ffffffffffffffffffffffffffffffffffffffff16815260200160008152602001606081526020016000600181111561100f57fe5b8152602001600081525090565b61103e91905b8082111561103a576000816000905550600101611022565b5090565b905600a165627a7a72305820faa379b70c5cc35931f988e4391177ef5c81493f7b6cfd3538c6c1e3c9cdb3090029",
  "source": "pragma solidity ^0.4.18;\n\ncontract BountyBuster {\n  enum TaskStatus {\n    Posted,\n    Completed\n  }\n  struct Task {\n    bytes title;\n    address poster;\n    address hunter;\n    uint reward;\n    bytes description;\n    TaskStatus status;\n    uint created_at;\n  }\n  mapping(bytes32 => Task) public tasks;\n  event TaskAdded(bytes32 indexed taskHash, address indexed poster);\n\n  enum RequestStatus {\n    Pending,\n    Accepted,\n    Rejected\n  }\n  struct Request {\n    address requester;\n    bytes32 taskHash;\n    bytes message;\n    RequestStatus status;\n    uint created_at;\n  }\n  mapping(bytes32 => Request) public requests;\n  event TaskRequested(bytes32 requestHash, bytes32 indexed taskHash, address indexed requester);\n\n  function addTask(bytes _title, bytes _description)\n  public\n  payable\n  returns (bytes32)\n  {\n    uint _createdAt = block.timestamp;\n    Task memory newTask = Task({\n      poster: msg.sender,\n      hunter: 0,\n      title: _title,\n      reward: msg.value,\n      description: _description,\n      status: TaskStatus.Posted,\n      created_at: _createdAt\n    });\n    bytes32 taskHash = keccak256(abi.encodePacked(msg.sender, _title, msg.value, _description, _createdAt));\n    tasks[taskHash] = newTask;\n    emit TaskAdded(taskHash, msg.sender);\n    return taskHash;\n  }\n\n  function submitRequest(bytes32 _taskHash, bytes _message)\n  public\n  {\n    uint _createdAt = block.timestamp;\n    Request memory newRequest = Request({\n      requester: msg.sender,\n      taskHash: _taskHash,\n      message: _message,\n      status: RequestStatus.Pending,\n      created_at: _createdAt\n    });\n    bytes32 requestHash = keccak256(abi.encodePacked(msg.sender, _taskHash, _message, _createdAt));\n    requests[requestHash] = newRequest;\n    emit TaskRequested(requestHash, _taskHash, msg.sender);\n  }\n\n  function acceptRequest(bytes32 _requestHash)\n  public\n  payable\n  {\n    Request storage request = requests[_requestHash];\n    Task storage task = tasks[request.taskHash];\n    request.requester.transfer(task.reward);\n    request.status = RequestStatus.Accepted;\n    task.status = TaskStatus.Completed;\n  }\n\n  function rejectRequest(bytes32 _requestHash)\n  public\n  {\n    Request storage request = requests[_requestHash];\n    request.status = RequestStatus.Rejected;\n  }\n}\n",
  "sourcePath": "/Users/jemilezzet/development/consensys/bounty-buster/contracts/BountyBuster.sol",
  "compiler": {
    "name": "solc",
    "version": "0.4.24+commit.e67f0147.Emscripten.clang"
  },
  "schemaVersion": "2.0.1",
  "updatedAt": "2018-08-08T02:53:04.174Z"
}