{
  "contractName": "BountyBuster",
  "abi": [
    {
      "constant": true,
      "inputs": [
        {
          "name": "",
          "type": "address"
        }
      ],
      "name": "balances",
      "outputs": [
        {
          "name": "",
          "type": "uint256"
        }
      ],
      "payable": false,
      "stateMutability": "view",
      "type": "function"
    },
    {
      "constant": true,
      "inputs": [],
      "name": "isStopped",
      "outputs": [
        {
          "name": "",
          "type": "bool"
        }
      ],
      "payable": false,
      "stateMutability": "view",
      "type": "function"
    },
    {
      "constant": true,
      "inputs": [
        {
          "name": "",
          "type": "bytes32"
        }
      ],
      "name": "requests",
      "outputs": [
        {
          "name": "requester",
          "type": "address"
        },
        {
          "name": "taskHash",
          "type": "bytes32"
        },
        {
          "name": "message",
          "type": "bytes"
        },
        {
          "name": "status",
          "type": "uint8"
        },
        {
          "name": "created_at",
          "type": "uint256"
        }
      ],
      "payable": false,
      "stateMutability": "view",
      "type": "function"
    },
    {
      "constant": true,
      "inputs": [
        {
          "name": "",
          "type": "bytes32"
        }
      ],
      "name": "tasks",
      "outputs": [
        {
          "name": "title",
          "type": "bytes"
        },
        {
          "name": "poster",
          "type": "address"
        },
        {
          "name": "reward",
          "type": "uint256"
        },
        {
          "name": "description",
          "type": "bytes"
        },
        {
          "name": "status",
          "type": "uint8"
        },
        {
          "name": "created_at",
          "type": "uint256"
        }
      ],
      "payable": false,
      "stateMutability": "view",
      "type": "function"
    },
    {
      "inputs": [],
      "payable": false,
      "stateMutability": "nonpayable",
      "type": "constructor"
    },
    {
      "payable": true,
      "stateMutability": "payable",
      "type": "fallback"
    },
    {
      "anonymous": false,
      "inputs": [
        {
          "indexed": true,
          "name": "taskHash",
          "type": "bytes32"
        },
        {
          "indexed": true,
          "name": "poster",
          "type": "address"
        }
      ],
      "name": "TaskAdded",
      "type": "event"
    },
    {
      "anonymous": false,
      "inputs": [
        {
          "indexed": false,
          "name": "requestHash",
          "type": "bytes32"
        },
        {
          "indexed": true,
          "name": "taskHash",
          "type": "bytes32"
        },
        {
          "indexed": true,
          "name": "requester",
          "type": "address"
        }
      ],
      "name": "TaskRequested",
      "type": "event"
    },
    {
      "constant": false,
      "inputs": [
        {
          "name": "_title",
          "type": "bytes"
        },
        {
          "name": "_description",
          "type": "bytes"
        }
      ],
      "name": "addTask",
      "outputs": [],
      "payable": true,
      "stateMutability": "payable",
      "type": "function"
    },
    {
      "constant": false,
      "inputs": [
        {
          "name": "_taskHash",
          "type": "bytes32"
        },
        {
          "name": "_message",
          "type": "bytes"
        }
      ],
      "name": "submitRequest",
      "outputs": [],
      "payable": false,
      "stateMutability": "nonpayable",
      "type": "function"
    },
    {
      "constant": false,
      "inputs": [
        {
          "name": "_requestHash",
          "type": "bytes32"
        }
      ],
      "name": "acceptRequest",
      "outputs": [],
      "payable": false,
      "stateMutability": "nonpayable",
      "type": "function"
    },
    {
      "constant": false,
      "inputs": [
        {
          "name": "_requestHash",
          "type": "bytes32"
        }
      ],
      "name": "rejectRequest",
      "outputs": [],
      "payable": false,
      "stateMutability": "nonpayable",
      "type": "function"
    },
    {
      "constant": false,
      "inputs": [],
      "name": "cashOut",
      "outputs": [],
      "payable": true,
      "stateMutability": "payable",
      "type": "function"
    },
    {
      "constant": false,
      "inputs": [],
      "name": "pause",
      "outputs": [],
      "payable": false,
      "stateMutability": "nonpayable",
      "type": "function"
    },
    {
      "constant": false,
      "inputs": [],
      "name": "resume",
      "outputs": [],
      "payable": false,
      "stateMutability": "nonpayable",
      "type": "function"
    }
  ],
  "bytecode": "0x608060405260008060146101000a81548160ff02191690831515021790555034801561002a57600080fd5b50336000806101000a81548173ffffffffffffffffffffffffffffffffffffffff021916908373ffffffffffffffffffffffffffffffffffffffff1602179055506123b18061007a6000396000f3006080604052600436106100af576000357c0100000000000000000000000000000000000000000000000000000000900463ffffffff168063046f7da2146100b457806327e235e3146100cb5780633f683b6a146101225780634e552bc514610151578063793cd71e146101c85780638456cb59146101d257806395587d03146101e95780639d8669851461021a578063a721cd3014610322578063c207972414610353578063e579f500146103f5575b600080fd5b3480156100c057600080fd5b506100c9610561565b005b3480156100d757600080fd5b5061010c600480360381019080803573ffffffffffffffffffffffffffffffffffffffff1690602001909291905050506105d8565b6040518082815260200191505060405180910390f35b34801561012e57600080fd5b506101376105f0565b604051808215151515815260200191505060405180910390f35b34801561015d57600080fd5b506101c66004803603810190808035600019169060200190929190803590602001908201803590602001908080601f0160208091040260200160405190810160405280939291908181526020018383808284378201915050505050509192919290505050610603565b005b6101d0610d76565b005b3480156101de57600080fd5b506101e7610e9c565b005b3480156101f557600080fd5b506102186004803603810190808035600019169060200190929190505050610f14565b005b34801561022657600080fd5b5061024960048036038101908080356000191690602001909291905050506114f9565b604051808673ffffffffffffffffffffffffffffffffffffffff1673ffffffffffffffffffffffffffffffffffffffff16815260200185600019166000191681526020018060200184600281111561029d57fe5b60ff168152602001838152602001828103825285818151815260200191508051906020019080838360005b838110156102e35780820151818401526020810190506102c8565b50505050905090810190601f1680156103105780820380516001836020036101000a031916815260200191505b50965050505050505060405180910390f35b34801561032e57600080fd5b5061035160048036038101908080356000191690602001909291905050506115f4565b005b6103f3600480360381019080803590602001908201803590602001908080601f0160208091040260200160405190810160405280939291908181526020018383808284378201915050505050509192919290803590602001908201803590602001908080601f0160208091040260200160405190810160405280939291908181526020018383808284378201915050505050509192919290505050611d72565b005b34801561040157600080fd5b50610424600480360381019080803560001916906020019092919050505061209b565b60405180806020018773ffffffffffffffffffffffffffffffffffffffff1673ffffffffffffffffffffffffffffffffffffffff1681526020018681526020018060200185600181111561047457fe5b60ff168152602001848152602001838103835289818151815260200191508051906020019080838360005b838110156104ba57808201518184015260208101905061049f565b50505050905090810190601f1680156104e75780820380516001836020036101000a031916815260200191505b50838103825286818151815260200191508051906020019080838360005b83811015610520578082015181840152602081019050610505565b50505050905090810190601f16801561054d5780820380516001836020036101000a031916815260200191505b509850505050505050505060405180910390f35b6000809054906101000a900473ffffffffffffffffffffffffffffffffffffffff1673ffffffffffffffffffffffffffffffffffffffff163373ffffffffffffffffffffffffffffffffffffffff161415156105bc57600080fd5b60008060146101000a81548160ff021916908315150217905550565b60036020528060005260406000206000915090505481565b600060149054906101000a900460ff1681565b600061060d612234565b600060011515600060149054906101000a900460ff1615151415151561063257600080fd5b8461063b612288565b60016000836000191660001916815260200190815260200160002060c06040519081016040529081600082018054600181600116156101000203166002900480601f0160208091040260200160405190810160405280929190818152602001828054600181600116156101000203166002900480156106fb5780601f106106d0576101008083540402835291602001916106fb565b820191906000526020600020905b8154815290600101906020018083116106de57829003601f168201915b505050505081526020016001820160009054906101000a900473ffffffffffffffffffffffffffffffffffffffff1673ffffffffffffffffffffffffffffffffffffffff1673ffffffffffffffffffffffffffffffffffffffff16815260200160028201548152602001600382018054600181600116156101000203166002900480601f0160208091040260200160405190810160405280929190818152602001828054600181600116156101000203166002900480156107fd5780601f106107d2576101008083540402835291602001916107fd565b820191906000526020600020905b8154815290600101906020018083116107e057829003601f168201915b505050505081526020016004820160009054906101000a900460ff16600181111561082457fe5b600181111561082f57fe5b815260200160058201548152505090503373ffffffffffffffffffffffffffffffffffffffff16816020015173ffffffffffffffffffffffffffffffffffffffff161415151561087e57600080fd5b86610887612288565b60016000836000191660001916815260200190815260200160002060c06040519081016040529081600082018054600181600116156101000203166002900480601f0160208091040260200160405190810160405280929190818152602001828054600181600116156101000203166002900480156109475780601f1061091c57610100808354040283529160200191610947565b820191906000526020600020905b81548152906001019060200180831161092a57829003601f168201915b505050505081526020016001820160009054906101000a900473ffffffffffffffffffffffffffffffffffffffff1673ffffffffffffffffffffffffffffffffffffffff1673ffffffffffffffffffffffffffffffffffffffff16815260200160028201548152602001600382018054600181600116156101000203166002900480601f016020809104026020016040519081016040528092919081815260200182805460018160011615610100020316600290048015610a495780601f10610a1e57610100808354040283529160200191610a49565b820191906000526020600020905b815481529060010190602001808311610a2c57829003601f168201915b505050505081526020016004820160009054906101000a900460ff166001811115610a7057fe5b6001811115610a7b57fe5b81526020016005820154815250509050600073ffffffffffffffffffffffffffffffffffffffff16816020015173ffffffffffffffffffffffffffffffffffffffff1614151515610acb57600080fd5b42965060a0604051908101604052803373ffffffffffffffffffffffffffffffffffffffff1681526020018a60001916815260200189815260200160006002811115610b1357fe5b815260200188815250955033898989604051602001808573ffffffffffffffffffffffffffffffffffffffff1673ffffffffffffffffffffffffffffffffffffffff166c01000000000000000000000000028152601401846000191660001916815260200183805190602001908083835b602083101515610ba95780518252602082019150602081019050602083039250610b84565b6001836020036101000a0380198251168184511680821785525050505050509050018281526020019450505050506040516020818303038152906040526040518082805190602001908083835b602083101515610c1b5780518252602082019150602081019050602083039250610bf6565b6001836020036101000a038019825116818451168082178552505050505050905001915050604051809103902094508560026000876000191660001916815260200190815260200160002060008201518160000160006101000a81548173ffffffffffffffffffffffffffffffffffffffff021916908373ffffffffffffffffffffffffffffffffffffffff160217905550602082015181600101906000191690556040820151816002019080519060200190610cd99291906122e0565b5060608201518160030160006101000a81548160ff02191690836002811115610cfe57fe5b0217905550608082015181600401559050503373ffffffffffffffffffffffffffffffffffffffff1689600019167f96bd54e22b73f861fdbf2b33846ab39a2ddafc0a4bb6ee9a104cb2451c8138b48760405180826000191660001916815260200191505060405180910390a3505050505050505050565b6000806000600360003373ffffffffffffffffffffffffffffffffffffffff1673ffffffffffffffffffffffffffffffffffffffff16815260200190815260200160002054111515610dc757600080fd5b339150600360008373ffffffffffffffffffffffffffffffffffffffff1673ffffffffffffffffffffffffffffffffffffffff1681526020019081526020016000205490508173ffffffffffffffffffffffffffffffffffffffff166108fc829081150290604051600060405180830381858888f19350505050158015610e52573d6000803e3d6000fd5b506000600360008473ffffffffffffffffffffffffffffffffffffffff1673ffffffffffffffffffffffffffffffffffffffff168152602001908152602001600020819055505050565b6000809054906101000a900473ffffffffffffffffffffffffffffffffffffffff1673ffffffffffffffffffffffffffffffffffffffff163373ffffffffffffffffffffffffffffffffffffffff16141515610ef757600080fd5b6001600060146101000a81548160ff021916908315150217905550565b600060011515600060149054906101000a900460ff16151514151515610f3957600080fd5b81610f42612234565b60026000836000191660001916815260200190815260200160002060a060405190810160405290816000820160009054906101000a900473ffffffffffffffffffffffffffffffffffffffff1673ffffffffffffffffffffffffffffffffffffffff1673ffffffffffffffffffffffffffffffffffffffff168152602001600182015460001916600019168152602001600282018054600181600116156101000203166002900480601f01602080910402602001604051908101604052809291908181526020018280546001816001161561010002031660029004801561106a5780601f1061103f5761010080835404028352916020019161106a565b820191906000526020600020905b81548152906001019060200180831161104d57829003601f168201915b505050505081526020016003820160009054906101000a900460ff16600281111561109157fe5b600281111561109c57fe5b81526020016004820154815250509050600073ffffffffffffffffffffffffffffffffffffffff16816000015173ffffffffffffffffffffffffffffffffffffffff16141515156110ec57600080fd5b836110f5612234565b6110fd612288565b60026000846000191660001916815260200190815260200160002060a060405190810160405290816000820160009054906101000a900473ffffffffffffffffffffffffffffffffffffffff1673ffffffffffffffffffffffffffffffffffffffff1673ffffffffffffffffffffffffffffffffffffffff168152602001600182015460001916600019168152602001600282018054600181600116156101000203166002900480601f0160208091040260200160405190810160405280929190818152602001828054600181600116156101000203166002900480156112255780601f106111fa57610100808354040283529160200191611225565b820191906000526020600020905b81548152906001019060200180831161120857829003601f168201915b505050505081526020016003820160009054906101000a900460ff16600281111561124c57fe5b600281111561125757fe5b815260200160048201548152505091506001600083602001516000191660001916815260200190815260200160002060c06040519081016040529081600082018054600181600116156101000203166002900480601f01602080910402602001604051908101604052809291908181526020018280546001816001161561010002031660029004801561132b5780601f106113005761010080835404028352916020019161132b565b820191906000526020600020905b81548152906001019060200180831161130e57829003601f168201915b505050505081526020016001820160009054906101000a900473ffffffffffffffffffffffffffffffffffffffff1673ffffffffffffffffffffffffffffffffffffffff1673ffffffffffffffffffffffffffffffffffffffff16815260200160028201548152602001600382018054600181600116156101000203166002900480601f01602080910402602001604051908101604052809291908181526020018280546001816001161561010002031660029004801561142d5780601f106114025761010080835404028352916020019161142d565b820191906000526020600020905b81548152906001019060200180831161141057829003601f168201915b505050505081526020016004820160009054906101000a900460ff16600181111561145457fe5b600181111561145f57fe5b815260200160058201548152505090503373ffffffffffffffffffffffffffffffffffffffff16816020015173ffffffffffffffffffffffffffffffffffffffff161415156114ad57600080fd5b600260008860001916600019168152602001908152602001600020955060028660030160006101000a81548160ff021916908360028111156114eb57fe5b021790555050505050505050565b60026020528060005260406000206000915090508060000160009054906101000a900473ffffffffffffffffffffffffffffffffffffffff1690806001015490806002018054600181600116156101000203166002900480601f0160208091040260200160405190810160405280929190818152602001828054600181600116156101000203166002900480156115d15780601f106115a6576101008083540402835291602001916115d1565b820191906000526020600020905b8154815290600101906020018083116115b457829003601f168201915b5050505050908060030160009054906101000a900460ff16908060040154905085565b60008060011515600060149054906101000a900460ff1615151415151561161a57600080fd5b82611623612234565b60026000836000191660001916815260200190815260200160002060a060405190810160405290816000820160009054906101000a900473ffffffffffffffffffffffffffffffffffffffff1673ffffffffffffffffffffffffffffffffffffffff1673ffffffffffffffffffffffffffffffffffffffff168152602001600182015460001916600019168152602001600282018054600181600116156101000203166002900480601f01602080910402602001604051908101604052809291908181526020018280546001816001161561010002031660029004801561174b5780601f106117205761010080835404028352916020019161174b565b820191906000526020600020905b81548152906001019060200180831161172e57829003601f168201915b505050505081526020016003820160009054906101000a900460ff16600281111561177257fe5b600281111561177d57fe5b81526020016004820154815250509050600073ffffffffffffffffffffffffffffffffffffffff16816000015173ffffffffffffffffffffffffffffffffffffffff16141515156117cd57600080fd5b846117d6612234565b6117de612288565b60026000846000191660001916815260200190815260200160002060a060405190810160405290816000820160009054906101000a900473ffffffffffffffffffffffffffffffffffffffff1673ffffffffffffffffffffffffffffffffffffffff1673ffffffffffffffffffffffffffffffffffffffff168152602001600182015460001916600019168152602001600282018054600181600116156101000203166002900480601f0160208091040260200160405190810160405280929190818152602001828054600181600116156101000203166002900480156119065780601f106118db57610100808354040283529160200191611906565b820191906000526020600020905b8154815290600101906020018083116118e957829003601f168201915b505050505081526020016003820160009054906101000a900460ff16600281111561192d57fe5b600281111561193857fe5b815260200160048201548152505091506001600083602001516000191660001916815260200190815260200160002060c06040519081016040529081600082018054600181600116156101000203166002900480601f016020809104026020016040519081016040528092919081815260200182805460018160011615610100020316600290048015611a0c5780601f106119e157610100808354040283529160200191611a0c565b820191906000526020600020905b8154815290600101906020018083116119ef57829003601f168201915b505050505081526020016001820160009054906101000a900473ffffffffffffffffffffffffffffffffffffffff1673ffffffffffffffffffffffffffffffffffffffff1673ffffffffffffffffffffffffffffffffffffffff16815260200160028201548152602001600382018054600181600116156101000203166002900480601f016020809104026020016040519081016040528092919081815260200182805460018160011615610100020316600290048015611b0e5780601f10611ae357610100808354040283529160200191611b0e565b820191906000526020600020905b815481529060010190602001808311611af157829003601f168201915b505050505081526020016004820160009054906101000a900460ff166001811115611b3557fe5b6001811115611b4057fe5b815260200160058201548152505090503373ffffffffffffffffffffffffffffffffffffffff16816020015173ffffffffffffffffffffffffffffffffffffffff16141515611b8e57600080fd5b6002600089600019166000191681526020019081526020016000209650600160008860010154600019166000191681526020019081526020016000209550600360008860000160009054906101000a900473ffffffffffffffffffffffffffffffffffffffff1673ffffffffffffffffffffffffffffffffffffffff1673ffffffffffffffffffffffffffffffffffffffff168152602001908152602001600020548660020154600360008a60000160009054906101000a900473ffffffffffffffffffffffffffffffffffffffff1673ffffffffffffffffffffffffffffffffffffffff1673ffffffffffffffffffffffffffffffffffffffff168152602001908152602001600020540110151515611ca757600080fd5b8560020154600360008960000160009054906101000a900473ffffffffffffffffffffffffffffffffffffffff1673ffffffffffffffffffffffffffffffffffffffff1673ffffffffffffffffffffffffffffffffffffffff1681526020019081526020016000206000828254019250508190555060018760030160006101000a81548160ff02191690836002811115611d3d57fe5b021790555060018660040160006101000a81548160ff02191690836001811115611d6357fe5b02179055505050505050505050565b6000611d7c612288565b600060011515600060149054906101000a900460ff16151514151515611da157600080fd5b42925060c0604051908101604052808681526020013373ffffffffffffffffffffffffffffffffffffffff16815260200134815260200185815260200160006001811115611deb57fe5b81526020018481525091503385348686604051602001808673ffffffffffffffffffffffffffffffffffffffff1673ffffffffffffffffffffffffffffffffffffffff166c0100000000000000000000000002815260140185805190602001908083835b602083101515611e745780518252602082019150602081019050602083039250611e4f565b6001836020036101000a03801982511681845116808217855250505050505090500184815260200183805190602001908083835b602083101515611ecd5780518252602082019150602081019050602083039250611ea8565b6001836020036101000a038019825116818451168082178552505050505050905001828152602001955050505050506040516020818303038152906040526040518082805190602001908083835b602083101515611f405780518252602082019150602081019050602083039250611f1b565b6001836020036101000a03801982511681845116808217855250505050505090500191505060405180910390209050816001600083600019166000191681526020019081526020016000206000820151816000019080519060200190611fa79291906122e0565b5060208201518160010160006101000a81548173ffffffffffffffffffffffffffffffffffffffff021916908373ffffffffffffffffffffffffffffffffffffffff1602179055506040820151816002015560608201518160030190805190602001906120159291906122e0565b5060808201518160040160006101000a81548160ff0219169083600181111561203a57fe5b021790555060a082015181600501559050503373ffffffffffffffffffffffffffffffffffffffff1681600019167f3ba5a355e94abaa785fc7ce1f7d985750dc7b561c514eb539e275b3526bd264d60405160405180910390a35050505050565b6001602052806000526040600020600091509050806000018054600181600116156101000203166002900480601f0160208091040260200160405190810160405280929190818152602001828054600181600116156101000203166002900480156121475780601f1061211c57610100808354040283529160200191612147565b820191906000526020600020905b81548152906001019060200180831161212a57829003601f168201915b5050505050908060010160009054906101000a900473ffffffffffffffffffffffffffffffffffffffff1690806002015490806003018054600181600116156101000203166002900480601f0160208091040260200160405190810160405280929190818152602001828054600181600116156101000203166002900480156122115780601f106121e657610100808354040283529160200191612211565b820191906000526020600020905b8154815290600101906020018083116121f457829003601f168201915b5050505050908060040160009054906101000a900460ff16908060050154905086565b60a060405190810160405280600073ffffffffffffffffffffffffffffffffffffffff16815260200160008019168152602001606081526020016000600281111561227b57fe5b8152602001600081525090565b60c06040519081016040528060608152602001600073ffffffffffffffffffffffffffffffffffffffff1681526020016000815260200160608152602001600060018111156122d357fe5b8152602001600081525090565b828054600181600116156101000203166002900490600052602060002090601f016020900481019282601f1061232157805160ff191683800117855561234f565b8280016001018555821561234f579182015b8281111561234e578251825591602001919060010190612333565b5b50905061235c9190612360565b5090565b61238291905b8082111561237e576000816000905550600101612366565b5090565b905600a165627a7a723058205a91df702a6b02fc3f63308495af0ade437b3f83578b6629d1fc2a30ab490e8e0029",
  "source": "pragma solidity ^0.4.18;\n\n/** @title Bounty Buster. */\ncontract BountyBuster {\n  // address of contract's owner\n  address owner;\n\n  // boolean for emergency stop\n  bool public isStopped = false;\n\n  // constructor sets owner to contract deployer\n  constructor() public {\n    owner = msg.sender;\n  }\n\n  enum TaskStatus { Posted, Completed }\n  enum RequestStatus { Pending, Accepted, Rejected }\n\n  struct Task {\n    bytes title;\n    address poster;\n    uint reward;\n    bytes description;\n    TaskStatus status;\n    uint created_at;\n  }\n  struct Request {\n    address requester;\n    bytes32 taskHash;\n    bytes message;\n    RequestStatus status;\n    uint created_at;\n  }\n\n  // task added event allows for filtering by taskHash or poster\n  event TaskAdded(bytes32 indexed taskHash, address indexed poster);\n\n  // request added event allows for filtering by taskHash or requester\n  event TaskRequested(bytes32 requestHash, bytes32 indexed taskHash, address indexed requester);\n\n  mapping(bytes32 => Task) public tasks;\n  mapping(bytes32 => Request) public requests;\n  mapping(address => uint) public balances;\n\n  // modifier which makes sure that contract is not stopped\n  modifier mustNotBeStopped() {\n    require(isStopped != true);\n    _;\n  }\n\n  // modifier which makes sure task exists\n  modifier taskMustExist(bytes32 _taskHash) {\n    Task memory task = tasks[_taskHash];\n    require(task.poster != address(0));\n    _;\n  }\n\n  // modifier which makes sure user is not poster of the task\n  modifier mustNotBePoster(bytes32 _taskHash) {\n    Task memory task = tasks[_taskHash];\n    require(task.poster != msg.sender);\n    _;\n  }\n\n  // modifier which makes sure request exists\n  modifier requestMustExist(bytes32 _requestHash) {\n    Request memory request = requests[_requestHash];\n    require(request.requester != address(0));\n    _;\n  }\n\n  // modifier which makes sure user is poster of the task\n  modifier mustBeTaskPoster(bytes32 _requestHash) {\n    Request memory request = requests[_requestHash];\n    Task memory task = tasks[request.taskHash];\n    require(task.poster == msg.sender);\n    _;\n  }\n\n  // modifier which makes sure user's balance is greater than 0\n  modifier balanceMustBeGreaterThanZero() {\n    require(balances[msg.sender] > 0);\n    _;\n  }\n\n  // modifier which makes sure user is owner\n  modifier mustBeOwner() {\n    require(msg.sender == owner);\n    _;\n  }\n\n  /** @dev Adds task.\n  * @param _title Title of the task.\n  * @param _description Description of the task.\n  */\n  function addTask(bytes _title, bytes _description)\n  public\n  payable\n  mustNotBeStopped()\n  {\n    uint _createdAt = block.timestamp;\n    Task memory newTask = Task({\n      poster: msg.sender,\n      title: _title,\n      reward: msg.value,\n      description: _description,\n      status: TaskStatus.Posted,\n      created_at: _createdAt\n      });\n      bytes32 taskHash = keccak256(abi.encodePacked(msg.sender, _title, msg.value, _description, _createdAt));\n      tasks[taskHash] = newTask;\n      emit TaskAdded(taskHash, msg.sender);\n    }\n\n  /** @dev Submits request for a task.\n    * @param _taskHash Hash of the task.\n    * @param _message Message containing work for task.\n    */\n  function submitRequest(bytes32 _taskHash, bytes _message)\n  public\n  mustNotBeStopped()\n  mustNotBePoster(_taskHash)\n  taskMustExist(_taskHash)\n  {\n    uint _createdAt = block.timestamp;\n    Request memory newRequest = Request({\n      requester: msg.sender,\n      taskHash: _taskHash,\n      message: _message,\n      status: RequestStatus.Pending,\n      created_at: _createdAt\n    });\n    bytes32 requestHash = keccak256(abi.encodePacked(msg.sender, _taskHash, _message, _createdAt));\n    requests[requestHash] = newRequest;\n    emit TaskRequested(requestHash, _taskHash, msg.sender);\n  }\n\n  /** @dev Accepts request.\n  * @param _requestHash Hash of the request.\n  */\n  function acceptRequest(bytes32 _requestHash)\n  public\n  mustNotBeStopped()\n  requestMustExist(_requestHash)\n  mustBeTaskPoster(_requestHash)\n  {\n    Request storage request = requests[_requestHash];\n    Task storage task = tasks[request.taskHash];\n    require(balances[request.requester] + task.reward >= balances[request.requester]);\n    balances[request.requester] += task.reward;\n    request.status = RequestStatus.Accepted;\n    task.status = TaskStatus.Completed;\n  }\n\n  /** @dev Rejects request.\n  * @param _requestHash Hash of the request.\n  */\n  function rejectRequest(bytes32 _requestHash)\n  public\n  mustNotBeStopped()\n  requestMustExist(_requestHash)\n  mustBeTaskPoster(_requestHash)\n  {\n    Request storage request = requests[_requestHash];\n    request.status = RequestStatus.Rejected;\n  }\n\n  // @dev Cashes out user\n  function cashOut()\n  public\n  payable\n  balanceMustBeGreaterThanZero()\n  {\n    address user = msg.sender;\n    uint balance = balances[user];\n    user.transfer(balance);\n    balances[user] = 0;\n  }\n\n  // @dev Pauses contract\n  function pause()\n  public\n  mustBeOwner()\n  {\n    isStopped = true;\n  }\n\n  // @dev Resumes contract\n  function resume()\n  public\n  mustBeOwner()\n  {\n    isStopped = false;\n  }\n\n  // @dev fallback function\n  function()\n  public\n  payable\n  {\n    revert();\n  }\n}\n",
  "sourcePath": "/Users/jemilezzet/development/consensys/bounty-buster/contracts/BountyBuster.sol",
  "compiler": {
    "name": "solc",
    "version": "0.4.24+commit.e67f0147.Emscripten.clang"
  },
  "schemaVersion": "2.0.1",
  "updatedAt": "2018-08-26T20:52:10.407Z"
}