{
  "contractName": "BountyBuster",
  "abi": [
    {
      "constant": true,
      "inputs": [
        {
          "name": "",
          "type": "bytes32"
        }
      ],
      "name": "tasks",
      "outputs": [
        {
          "name": "title",
          "type": "bytes"
        },
        {
          "name": "poster",
          "type": "address"
        },
        {
          "name": "hunter",
          "type": "address"
        },
        {
          "name": "reward",
          "type": "uint256"
        },
        {
          "name": "description",
          "type": "bytes"
        },
        {
          "name": "status",
          "type": "uint8"
        },
        {
          "name": "created_at",
          "type": "uint256"
        }
      ],
      "payable": false,
      "stateMutability": "view",
      "type": "function"
    },
    {
      "anonymous": false,
      "inputs": [
        {
          "indexed": false,
          "name": "taskHash",
          "type": "bytes32"
        },
        {
          "indexed": true,
          "name": "poster",
          "type": "address"
        }
      ],
      "name": "TaskAdded",
      "type": "event"
    },
    {
      "constant": false,
      "inputs": [
        {
          "name": "_title",
          "type": "bytes"
        },
        {
          "name": "_description",
          "type": "bytes"
        }
      ],
      "name": "addTask",
      "outputs": [],
      "payable": true,
      "stateMutability": "payable",
      "type": "function"
    }
  ],
  "bytecode": "0x608060405234801561001057600080fd5b50610912806100206000396000f30060806040526004361061004c576000357c0100000000000000000000000000000000000000000000000000000000900463ffffffff168063c207972414610051578063e579f500146100f3575b600080fd5b6100f1600480360381019080803590602001908201803590602001908080601f0160208091040260200160405190810160405280939291908181526020018383808284378201915050505050509192919290803590602001908201803590602001908080601f0160208091040260200160405190810160405280939291908181526020018383808284378201915050505050509192919290505050610292565b005b3480156100ff57600080fd5b50610122600480360381019080803560001916906020019092919050505061060d565b60405180806020018873ffffffffffffffffffffffffffffffffffffffff1673ffffffffffffffffffffffffffffffffffffffff1681526020018773ffffffffffffffffffffffffffffffffffffffff1673ffffffffffffffffffffffffffffffffffffffff168152602001868152602001806020018560028111156101a457fe5b60ff16815260200184815260200183810383528a818151815260200191508051906020019080838360005b838110156101ea5780820151818401526020810190506101cf565b50505050905090810190601f1680156102175780820380516001836020036101000a031916815260200191505b50838103825286818151815260200191508051906020019080838360005b83811015610250578082015181840152602081019050610235565b50505050905090810190601f16801561027d5780820380516001836020036101000a031916815260200191505b50995050505050505050505060405180910390f35b600061029c6107cc565b600042925060e0604051908101604052808681526020013373ffffffffffffffffffffffffffffffffffffffff168152602001600073ffffffffffffffffffffffffffffffffffffffff1681526020013481526020018581526020016000600281111561030557fe5b8152602001848152509150816020015185348686604051602001808673ffffffffffffffffffffffffffffffffffffffff1673ffffffffffffffffffffffffffffffffffffffff166c0100000000000000000000000002815260140185805190602001908083835b602083101515610392578051825260208201915060208101905060208303925061036d565b6001836020036101000a03801982511681845116808217855250505050505090500184815260200183805190602001908083835b6020831015156103eb57805182526020820191506020810190506020830392506103c6565b6001836020036101000a038019825116818451168082178552505050505050905001828152602001955050505050506040516020818303038152906040526040518082805190602001908083835b60208310151561045e5780518252602082019150602081019050602083039250610439565b6001836020036101000a0380198251168184511680821785525050505050509050019150506040518091039020905081600080836000191660001916815260200190815260200160002060008201518160000190805190602001906104c4929190610841565b5060208201518160010160006101000a81548173ffffffffffffffffffffffffffffffffffffffff021916908373ffffffffffffffffffffffffffffffffffffffff16021790555060408201518160020160006101000a81548173ffffffffffffffffffffffffffffffffffffffff021916908373ffffffffffffffffffffffffffffffffffffffff160217905550606082015181600301556080820151816004019080519060200190610579929190610841565b5060a08201518160050160006101000a81548160ff0219169083600281111561059e57fe5b021790555060c082015181600601559050503373ffffffffffffffffffffffffffffffffffffffff167f3ba5a355e94abaa785fc7ce1f7d985750dc7b561c514eb539e275b3526bd264d8260405180826000191660001916815260200191505060405180910390a25050505050565b6000602052806000526040600020600091509050806000018054600181600116156101000203166002900480601f0160208091040260200160405190810160405280929190818152602001828054600181600116156101000203166002900480156106b95780601f1061068e576101008083540402835291602001916106b9565b820191906000526020600020905b81548152906001019060200180831161069c57829003601f168201915b5050505050908060010160009054906101000a900473ffffffffffffffffffffffffffffffffffffffff16908060020160009054906101000a900473ffffffffffffffffffffffffffffffffffffffff1690806003015490806004018054600181600116156101000203166002900480601f0160208091040260200160405190810160405280929190818152602001828054600181600116156101000203166002900480156107a95780601f1061077e576101008083540402835291602001916107a9565b820191906000526020600020905b81548152906001019060200180831161078c57829003601f168201915b5050505050908060050160009054906101000a900460ff16908060060154905087565b60e06040519081016040528060608152602001600073ffffffffffffffffffffffffffffffffffffffff168152602001600073ffffffffffffffffffffffffffffffffffffffff16815260200160008152602001606081526020016000600281111561083457fe5b8152602001600081525090565b828054600181600116156101000203166002900490600052602060002090601f016020900481019282601f1061088257805160ff19168380011785556108b0565b828001600101855582156108b0579182015b828111156108af578251825591602001919060010190610894565b5b5090506108bd91906108c1565b5090565b6108e391905b808211156108df5760008160009055506001016108c7565b5090565b905600a165627a7a723058205b8e49f62545d3290785b79527aa02e1f9397953e1a6f75e2b638eea52e2db3c0029",
  "source": "pragma solidity ^0.4.18;\n\ncontract BountyBuster {\n  enum TaskStatus {\n    Posted,\n    Submitted,\n    Completed\n  }\n\n  struct Task {\n    bytes title;\n    address poster;\n    address hunter;\n    uint reward;\n    bytes description;\n    TaskStatus status;\n    uint created_at;\n  }\n\n  mapping(bytes32 => Task) public tasks;\n\n  event TaskAdded(bytes32 taskHash, address indexed poster);\n\n  function addTask(bytes _title, bytes _description)\n  public\n  payable\n  {\n    uint _createdAt = block.timestamp;\n    Task memory newTask = Task({\n      poster: msg.sender,\n      hunter: 0,\n      title: _title,\n      reward: msg.value,\n      description: _description,\n      status: TaskStatus.Posted,\n      created_at: _createdAt\n    });\n    bytes32 taskHash = keccak256(abi.encodePacked(newTask.poster, _title, msg.value, _description, _createdAt));\n    tasks[taskHash] = newTask;\n    emit TaskAdded(taskHash, msg.sender);\n  }\n}\n",
  "sourcePath": "/Users/jemilezzet/development/consensys/bounty_buster/contracts/BountyBuster.sol",
  "compiler": {
    "name": "solc",
    "version": "0.4.24+commit.e67f0147.Emscripten.clang"
  },
  "schemaVersion": "2.0.1",
  "updatedAt": "2018-08-01T04:53:37.454Z"
}